{
  "contractName": "BaseRelayRecipient",
  "abi": [
    {
      "constant": true,
      "inputs": [],
      "name": "getTrustedForwarder",
      "outputs": [
        {
          "internalType": "address",
          "name": "",
          "type": "address"
        }
      ],
      "payable": false,
      "stateMutability": "view",
      "type": "function"
    }
  ],
  "bytecode": "0x608060405234801561001057600080fd5b5060d38061001f6000396000f3fe6080604052348015600f57600080fd5b506004361060285760003560e01c8063ce1b815f14602d575b600080fd5b60336075565b604051808273ffffffffffffffffffffffffffffffffffffffff1673ffffffffffffffffffffffffffffffffffffffff16815260200191505060405180910390f35b60008060009054906101000a900473ffffffffffffffffffffffffffffffffffffffff1690509056fea265627a7a723158209726df53bf0ee50efa36ce0dc11c6d50313320bba617a762f70726e981b7b12464736f6c63430005100032",
  "source": "pragma solidity ^0.5.16;\n\nimport \"@0x/contracts-utils/contracts/src/LibBytes.sol\";\n\nimport \"./interfaces/IRelayRecipient.sol\";\n\n/**\n * A base contract to be inherited by any contract that want to receive relayed transactions\n * A subclass must use \"_msgSender()\" instead of \"msg.sender\"\n */\ncontract BaseRelayRecipient is IRelayRecipient {\n\n    /// the TrustedForwarder singleton we accept calls from.\n    // we trust it to verify the caller's signature, and pass the caller's address as last 20 bytes\n    address internal trustedForwarder;\n\n    /*\n     * require a function to be called through GSN only\n     */\n    modifier trustedForwarderOnly() {\n        require(msg.sender == address(trustedForwarder), \"Function can only be called through trustedForwarder\");\n        _;\n    }\n\n    function getTrustedForwarder() public view returns(address) {\n        return trustedForwarder;\n    }\n\n    /**\n     * return the sender of this call.\n     * if the call came through our trusted forwarder, return the original sender.\n     * otherwise, return `msg.sender`.\n     * should be used in the contract anywhere instead of msg.sender\n     */\n    function _msgSender() internal view returns (address) {\n        if (msg.data.length >= 24 && msg.sender == address(getTrustedForwarder())) {\n            // At this point we know that the sender is a trusted forwarder,\n            // so we trust that the last bytes of msg.data are the verified sender address.\n            // extract sender address from the end of msg.data\n            return LibBytes.readAddress(msg.data, msg.data.length - 20);\n        }\n        return msg.sender;\n    }\n}\n",
  "sourcePath": "@opengsn/gsn/contracts/BaseRelayRecipient.sol",
  "compiler": {
    "name": "solc",
    "version": "0.5.16+commit.9c3226ce.Emscripten.clang"
  },
  "schemaVersion": "3.1.0",
  "updatedAt": "2020-06-07T13:11:36.671Z",
  "devdoc": {
    "methods": {}
  },
  "userdoc": {
    "methods": {},
    "notice": "A base contract to be inherited by any contract that want to receive relayed transactions A subclass must use \"_msgSender()\" instead of \"msg.sender\""
  }
}