{
  "contractName": "EIP712Sig",
  "abi": [
    {
      "inputs": [
        {
          "internalType": "address",
          "name": "verifier",
          "type": "address"
        }
      ],
      "payable": false,
      "stateMutability": "nonpayable",
      "type": "constructor"
    },
    {
      "constant": true,
      "inputs": [],
      "name": "CALLDATA_TYPEHASH",
      "outputs": [
        {
          "internalType": "bytes32",
          "name": "",
          "type": "bytes32"
        }
      ],
      "payable": false,
      "stateMutability": "view",
      "type": "function"
    },
    {
      "constant": true,
      "inputs": [],
      "name": "DOMAIN_SEPARATOR",
      "outputs": [
        {
          "internalType": "bytes32",
          "name": "",
          "type": "bytes32"
        }
      ],
      "payable": false,
      "stateMutability": "view",
      "type": "function"
    },
    {
      "constant": true,
      "inputs": [],
      "name": "EIP712DOMAIN_TYPEHASH",
      "outputs": [
        {
          "internalType": "bytes32",
          "name": "",
          "type": "bytes32"
        }
      ],
      "payable": false,
      "stateMutability": "view",
      "type": "function"
    },
    {
      "constant": true,
      "inputs": [],
      "name": "RELAYDATA_TYPEHASH",
      "outputs": [
        {
          "internalType": "bytes32",
          "name": "",
          "type": "bytes32"
        }
      ],
      "payable": false,
      "stateMutability": "view",
      "type": "function"
    },
    {
      "constant": true,
      "inputs": [],
      "name": "RELAY_REQUEST_TYPEHASH",
      "outputs": [
        {
          "internalType": "bytes32",
          "name": "",
          "type": "bytes32"
        }
      ],
      "payable": false,
      "stateMutability": "view",
      "type": "function"
    },
    {
      "constant": true,
      "inputs": [
        {
          "components": [
            {
              "internalType": "address",
              "name": "target",
              "type": "address"
            },
            {
              "internalType": "bytes",
              "name": "encodedFunction",
              "type": "bytes"
            },
            {
              "components": [
                {
                  "internalType": "uint256",
                  "name": "gasLimit",
                  "type": "uint256"
                },
                {
                  "internalType": "uint256",
                  "name": "gasPrice",
                  "type": "uint256"
                },
                {
                  "internalType": "uint256",
                  "name": "pctRelayFee",
                  "type": "uint256"
                },
                {
                  "internalType": "uint256",
                  "name": "baseRelayFee",
                  "type": "uint256"
                }
              ],
              "internalType": "struct GSNTypes.GasData",
              "name": "gasData",
              "type": "tuple"
            },
            {
              "components": [
                {
                  "internalType": "address",
                  "name": "senderAddress",
                  "type": "address"
                },
                {
                  "internalType": "uint256",
                  "name": "senderNonce",
                  "type": "uint256"
                },
                {
                  "internalType": "address",
                  "name": "relayWorker",
                  "type": "address"
                },
                {
                  "internalType": "address",
                  "name": "paymaster",
                  "type": "address"
                }
              ],
              "internalType": "struct GSNTypes.RelayData",
              "name": "relayData",
              "type": "tuple"
            }
          ],
          "internalType": "struct GSNTypes.RelayRequest",
          "name": "req",
          "type": "tuple"
        },
        {
          "internalType": "bytes",
          "name": "signature",
          "type": "bytes"
        }
      ],
      "name": "verify",
      "outputs": [
        {
          "internalType": "bool",
          "name": "",
          "type": "bool"
        }
      ],
      "payable": false,
      "stateMutability": "view",
      "type": "function"
    }
  ],
  "bytecode": "0x60806040523480156200001157600080fd5b50604051620011d0380380620011d083398181016040526200003791908101906200016d565b620000e260405180606001604052806040518060400160405280601781526020017f47534e2052656c61796564205472616e73616374696f6e00000000000000000081525081526020016040518060400160405280600181526020017f310000000000000000000000000000000000000000000000000000000000000081525081526020018373ffffffffffffffffffffffffffffffffffffffff16815250620000ef60201b60201c565b6000819055505062000310565b6000604051620000ff9062000249565b6040518091039020826000015180519060200120836020015180519060200120846040015160405160200162000139949392919062000260565b604051602081830303815290604052805190602001209050919050565b6000815190506200016781620002f6565b92915050565b6000602082840312156200018057600080fd5b6000620001908482850162000156565b91505092915050565b620001a481620002b8565b82525050565b620001b581620002cc565b82525050565b6000620001ca604283620002ad565b91507f454950373132446f6d61696e28737472696e67206e616d652c737472696e672060008301527f76657273696f6e2c6164647265737320766572696679696e67436f6e7472616360208301527f74290000000000000000000000000000000000000000000000000000000000006040830152604282019050919050565b60006200025682620001bb565b9150819050919050565b6000608082019050620002776000830187620001aa565b620002866020830186620001aa565b620002956040830185620001aa565b620002a4606083018462000199565b95945050505050565b600081905092915050565b6000620002c582620002d6565b9050919050565b6000819050919050565b600073ffffffffffffffffffffffffffffffffffffffff82169050919050565b6200030181620002b8565b81146200030d57600080fd5b50565b610eb080620003206000396000f3fe608060405234801561001057600080fd5b50600436106100625760003560e01c80633644e515146100675780633fb37abf146100855780638e1653c9146100a3578063abf0d3f4146100d3578063c49f91d3146100f1578063cc0c62b21461010f575b600080fd5b61006f61012d565b60405161007c9190610b95565b60405180910390f35b61008d610133565b60405161009a9190610b95565b60405180910390f35b6100bd60048036036100b89190810190610682565b61014a565b6040516100ca9190610b7a565b60405180910390f35b6100db6101d4565b6040516100e89190610b95565b60405180910390f35b6100f96101eb565b6040516101069190610b95565b60405180910390f35b610117610202565b6040516101249190610b95565b60405180910390f35b60005481565b60405161013f90610b65565b604051809103902081565b60008060005461015985610219565b60405160200161016a929190610b04565b60405160208183030381529060405280519060200120905083606001516000015173ffffffffffffffffffffffffffffffffffffffff166101b4848361029990919063ffffffff16565b73ffffffffffffffffffffffffffffffffffffffff161491505092915050565b6040516101e090610aef565b604051809103902081565b6040516101f790610b3b565b604051809103902081565b60405161020e90610b50565b604051809103902081565b600060405161022790610aef565b6040518091039020826000015183602001516040516102469190610ad8565b604051809103902061025b8560400151610385565b61026886606001516103e0565b60405160200161027c959493929190610bb0565b604051602081830303815290604052805190602001209050919050565b600060418251146102ad576000905061037f565b60008060006020850151925060408501519150606085015160001a90507f7fffffffffffffffffffffffffffffff5d576e7357a4501ddfe92f46681b20a08260001c1115610301576000935050505061037f565b601b8160ff16141580156103195750601c8160ff1614155b1561032a576000935050505061037f565b6001868285856040516000815260200160405260405161034d9493929190610ca9565b6020604051602081039080840390855afa15801561036f573d6000803e3d6000fd5b5050506020604051035193505050505b92915050565b600060405161039390610b65565b604051809103902082600001518360200151846040015185606001516040516020016103c3959493929190610c56565b604051602081830303815290604052805190602001209050919050565b60006040516103ee90610b50565b6040518091039020826000015183602001518460400151856060015160405160200161041e959493929190610c03565b604051602081830303815290604052805190602001209050919050565b60008135905061044a81610e3f565b92915050565b600082601f83011261046157600080fd5b813561047461046f82610d1b565b610cee565b9150808252602083016020830185838301111561049057600080fd5b61049b838284610df3565b50505092915050565b600082601f8301126104b557600080fd5b81356104c86104c382610d47565b610cee565b915080825260208301602083018583830111156104e457600080fd5b6104ef838284610df3565b50505092915050565b60006080828403121561050a57600080fd5b6105146080610cee565b905060006105248482850161066d565b60008301525060206105388482850161066d565b602083015250604061054c8482850161066d565b60408301525060606105608482850161066d565b60608301525092915050565b60006080828403121561057e57600080fd5b6105886080610cee565b905060006105988482850161043b565b60008301525060206105ac8482850161066d565b60208301525060406105c08482850161043b565b60408301525060606105d48482850161043b565b60608301525092915050565b600061014082840312156105f357600080fd5b6105fd6080610cee565b9050600061060d8482850161043b565b600083015250602082013567ffffffffffffffff81111561062d57600080fd5b61063984828501610450565b602083015250604061064d848285016104f8565b60408301525060c06106618482850161056c565b60608301525092915050565b60008135905061067c81610e56565b92915050565b6000806040838503121561069557600080fd5b600083013567ffffffffffffffff8111156106af57600080fd5b6106bb858286016105e0565b925050602083013567ffffffffffffffff8111156106d857600080fd5b6106e4858286016104a4565b9150509250929050565b6106f781610d94565b82525050565b61070681610da6565b82525050565b61071581610db2565b82525050565b61072c61072782610db2565b610e35565b82525050565b600061073d82610d73565b6107478185610d7e565b9350610757818560208601610e02565b80840191505092915050565b600061077161010383610d89565b91507f52656c6179526571756573742861646472657373207461726765742c6279746560008301527f7320656e636f64656446756e6374696f6e2c476173446174612067617344617460208301527f612c52656c6179446174612072656c617944617461294761734461746128756960408301527f6e74323536206761734c696d69742c75696e743235362067617350726963652c60608301527f75696e743235362070637452656c61794665652c75696e74323536206261736560808301527f52656c61794665652952656c61794461746128616464726573732073656e646560a08301527f72416464726573732c75696e743235362073656e6465724e6f6e63652c61646460c08301527f726573732072656c6179576f726b65722c61646472657373207061796d61737460e08301527f657229000000000000000000000000000000000000000000000000000000000061010083015261010382019050919050565b60006108e3600283610d89565b91507f19010000000000000000000000000000000000000000000000000000000000006000830152600282019050919050565b6000610923604283610d89565b91507f454950373132446f6d61696e28737472696e67206e616d652c737472696e672060008301527f76657273696f6e2c6164647265737320766572696679696e67436f6e7472616360208301527f74290000000000000000000000000000000000000000000000000000000000006040830152604282019050919050565b60006109af605a83610d89565b91507f52656c61794461746128616464726573732073656e646572416464726573732c60008301527f75696e743235362073656e6465724e6f6e63652c616464726573732072656c6160208301527f79576f726b65722c61646472657373207061796d6173746572290000000000006040830152605a82019050919050565b6000610a3b605383610d89565b91507f476173446174612875696e74323536206761734c696d69742c75696e7432353660008301527f2067617350726963652c75696e743235362070637452656c61794665652c756960208301527f6e74323536206261736552656c617946656529000000000000000000000000006040830152605382019050919050565b610ac381610ddc565b82525050565b610ad281610de6565b82525050565b6000610ae48284610732565b915081905092915050565b6000610afa82610763565b9150819050919050565b6000610b0f826108d6565b9150610b1b828561071b565b602082019150610b2b828461071b565b6020820191508190509392505050565b6000610b4682610916565b9150819050919050565b6000610b5b826109a2565b9150819050919050565b6000610b7082610a2e565b9150819050919050565b6000602082019050610b8f60008301846106fd565b92915050565b6000602082019050610baa600083018461070c565b92915050565b600060a082019050610bc5600083018861070c565b610bd260208301876106ee565b610bdf604083018661070c565b610bec606083018561070c565b610bf9608083018461070c565b9695505050505050565b600060a082019050610c18600083018861070c565b610c2560208301876106ee565b610c326040830186610aba565b610c3f60608301856106ee565b610c4c60808301846106ee565b9695505050505050565b600060a082019050610c6b600083018861070c565b610c786020830187610aba565b610c856040830186610aba565b610c926060830185610aba565b610c9f6080830184610aba565b9695505050505050565b6000608082019050610cbe600083018761070c565b610ccb6020830186610ac9565b610cd8604083018561070c565b610ce5606083018461070c565b95945050505050565b6000604051905081810181811067ffffffffffffffff82111715610d1157600080fd5b8060405250919050565b600067ffffffffffffffff821115610d3257600080fd5b601f19601f8301169050602081019050919050565b600067ffffffffffffffff821115610d5e57600080fd5b601f19601f8301169050602081019050919050565b600081519050919050565b600081905092915050565b600081905092915050565b6000610d9f82610dbc565b9050919050565b60008115159050919050565b6000819050919050565b600073ffffffffffffffffffffffffffffffffffffffff82169050919050565b6000819050919050565b600060ff82169050919050565b82818337600083830152505050565b60005b83811015610e20578082015181840152602081019050610e05565b83811115610e2f576000848401525b50505050565b6000819050919050565b610e4881610d94565b8114610e5357600080fd5b50565b610e5f81610ddc565b8114610e6a57600080fd5b5056fea365627a7a7231582021f9c335a34912803d4f0900a4e723dfb93e4e92dd32d8e7602d81b83f4557506c6578706572696d656e74616cf564736f6c63430005100040",
  "source": "pragma solidity ^0.5.16;\npragma experimental ABIEncoderV2;\n\nimport \"openzeppelin-solidity/contracts/cryptography/ECDSA.sol\";\nimport \"./GSNTypes.sol\";\n\n// https://github.com/ethereum/EIPs/blob/master/assets/eip-712/Example.sol\ncontract EIP712Sig {\n\n    using ECDSA for bytes32;\n\n    struct EIP712Domain {\n        string name;\n        string version;\n//        uint256 chainId;\n        address verifyingContract;\n    }\n\n    bytes32 public constant EIP712DOMAIN_TYPEHASH = keccak256(\n        \"EIP712Domain(string name,string version,address verifyingContract)\"\n    );\n\n    // solhint-disable-next-line max-line-length\n    bytes32 public constant RELAY_REQUEST_TYPEHASH = keccak256(\"RelayRequest(address target,bytes encodedFunction,GasData gasData,RelayData relayData)GasData(uint256 gasLimit,uint256 gasPrice,uint256 pctRelayFee,uint256 baseRelayFee)RelayData(address senderAddress,uint256 senderNonce,address relayWorker,address paymaster)\");\n\n    // solhint-disable-next-line max-line-length\n    bytes32 public constant CALLDATA_TYPEHASH = keccak256(\"GasData(uint256 gasLimit,uint256 gasPrice,uint256 pctRelayFee,uint256 baseRelayFee)\");\n\n    // solhint-disable-next-line max-line-length\n    bytes32 public constant RELAYDATA_TYPEHASH = keccak256(\"RelayData(address senderAddress,uint256 senderNonce,address relayWorker,address paymaster)\");\n\n    // solhint-disable-next-line var-name-mixedcase\n    bytes32 public DOMAIN_SEPARATOR; //not constant - based on chainId\n\n    constructor (address verifier) public {\n        DOMAIN_SEPARATOR = hash(EIP712Domain({\n            name : \"GSN Relayed Transaction\",\n            version : \"1\",\n//            chainId : getChainID(),\n            verifyingContract : verifier\n        }));\n    }\n\n    function hash(EIP712Domain memory eip712Domain) internal pure returns (bytes32) {\n        return keccak256(abi.encode(\n                EIP712DOMAIN_TYPEHASH,\n                keccak256(bytes(eip712Domain.name)),\n                keccak256(bytes(eip712Domain.version)),\n//                eip712Domain.chainId,\n                eip712Domain.verifyingContract\n            ));\n    }\n\n    function hash(GSNTypes.RelayRequest memory req) internal pure returns (bytes32) {\n        return keccak256(abi.encode(\n                RELAY_REQUEST_TYPEHASH,\n                    req.target,\n                    keccak256(req.encodedFunction),\n                    hash(req.gasData),\n                    hash(req.relayData)\n            ));\n    }\n\n    function hash(GSNTypes.GasData memory req) internal pure returns (bytes32) {\n        return keccak256(abi.encode(\n                CALLDATA_TYPEHASH,\n                req.gasLimit,\n                req.gasPrice,\n                req.pctRelayFee,\n                req.baseRelayFee\n            ));\n    }\n\n    function hash(GSNTypes.RelayData memory req) internal pure returns (bytes32) {\n        return keccak256(abi.encode(\n                RELAYDATA_TYPEHASH,\n                req.senderAddress,\n                req.senderNonce,\n                req.relayWorker,\n                req.paymaster\n            ));\n    }\n\n    function verify(GSNTypes.RelayRequest memory req, bytes memory signature) public view returns (bool) {\n        bytes32 digest = keccak256(abi.encodePacked(\n                \"\\x19\\x01\", DOMAIN_SEPARATOR,\n                hash(req)\n            ));\n        return digest.recover(signature) == req.relayData.senderAddress;\n    }\n\n    function getChainID() internal pure returns (uint256) {\n//        uint256 id;\n//        assembly {\n//            id := chainid()\n//        }\n        return 7;\n    }\n}\n",
  "sourcePath": "@opengsn/gsn/contracts/utils/EIP712Sig.sol",
  "compiler": {
    "name": "solc",
    "version": "0.5.16+commit.9c3226ce.Emscripten.clang"
  },
  "schemaVersion": "3.1.0",
  "updatedAt": "2020-06-07T13:11:36.688Z",
  "devdoc": {
    "methods": {}
  },
  "userdoc": {
    "methods": {}
  }
}