{
  "contractName": "Penalizer",
  "abi": [
    {
      "constant": false,
      "inputs": [
        {
          "internalType": "bytes",
          "name": "unsignedTx1",
          "type": "bytes"
        },
        {
          "internalType": "bytes",
          "name": "signature1",
          "type": "bytes"
        },
        {
          "internalType": "bytes",
          "name": "unsignedTx2",
          "type": "bytes"
        },
        {
          "internalType": "bytes",
          "name": "signature2",
          "type": "bytes"
        },
        {
          "internalType": "contract IRelayHub",
          "name": "hub",
          "type": "address"
        }
      ],
      "name": "penalizeRepeatedNonce",
      "outputs": [],
      "payable": false,
      "stateMutability": "nonpayable",
      "type": "function"
    },
    {
      "constant": false,
      "inputs": [
        {
          "internalType": "bytes",
          "name": "unsignedTx",
          "type": "bytes"
        },
        {
          "internalType": "bytes",
          "name": "signature",
          "type": "bytes"
        },
        {
          "internalType": "contract IRelayHub",
          "name": "hub",
          "type": "address"
        }
      ],
      "name": "penalizeIllegalTransaction",
      "outputs": [],
      "payable": false,
      "stateMutability": "nonpayable",
      "type": "function"
    }
  ],
  "bytecode": "0x608060405234801561001057600080fd5b50611636806100206000396000f3fe608060405234801561001057600080fd5b50600436106100365760003560e01c806339ee150a1461003b578063f913fe3e14610057575b600080fd5b61005560048036036100509190810190610ef6565b610073565b005b610071600480360361006c9190810190610e1f565b610230565b005b61007b610d36565b610084846104d4565b90508173ffffffffffffffffffffffffffffffffffffffff16816060015173ffffffffffffffffffffffffffffffffffffffff1614156101725760006100cd8260a00151610551565b90508273ffffffffffffffffffffffffffffffffffffffff166309b8983c905060e01b7bffffffffffffffffffffffffffffffffffffffffffffffffffffffff1916817bffffffffffffffffffffffffffffffffffffffffffffffffffffffff19161415610170576040517f08c379a00000000000000000000000000000000000000000000000000000000081526004016101679061134b565b60405180910390fd5b505b60006101ad84866040516020016101899190611245565b6040516020818303038152906040528051906020012061056590919063ffffffff16565b9050600073ffffffffffffffffffffffffffffffffffffffff168173ffffffffffffffffffffffffffffffffffffffff16141561021f576040517f08c379a00000000000000000000000000000000000000000000000000000000081526004016102169061140b565b60405180910390fd5b6102298184610651565b5050505050565b600061026b85876040516020016102479190611245565b6040516020818303038152906040528051906020012061056590919063ffffffff16565b905060006102a884866040516020016102849190611245565b6040516020818303038152906040528051906020012061056590919063ffffffff16565b90508073ffffffffffffffffffffffffffffffffffffffff168273ffffffffffffffffffffffffffffffffffffffff1614610318576040517f08c379a000000000000000000000000000000000000000000000000000000000815260040161030f906113ab565b60405180910390fd5b600073ffffffffffffffffffffffffffffffffffffffff168273ffffffffffffffffffffffffffffffffffffffff161415610388576040517f08c379a000000000000000000000000000000000000000000000000000000000815260040161037f9061140b565b60405180910390fd5b610390610d36565b610399886104d4565b90506103a3610d36565b6103ac876104d4565b905080600001518260000151146103f8576040517f08c379a00000000000000000000000000000000000000000000000000000000081526004016103ef9061138b565b60405180910390fd5b60608260a00151836040015184606001518560800151604051602001610421949392919061125c565b604051602081830303815290604052905060608260a0015183604001518460600151856080015160405160200161045b949392919061125c565b60405160208183030381529060405290508080519060200120828051906020012014156104bd576040517f08c379a00000000000000000000000000000000000000000000000000000000081526004016104b4906113cb565b60405180910390fd5b6104c78688610651565b5050505050505050505050565b6104dc610d36565b6104e5826106c2565b809050866000018760200188604001896060018a6080018b60a001869052868152508673ffffffffffffffffffffffffffffffffffffffff1673ffffffffffffffffffffffffffffffffffffffff16815250868152508681525086815250505050505050809050919050565b600061055e8260006107a4565b9050919050565b60006041825114610579576000905061064b565b60008060006020850151925060408501519150606085015160001a90507f7fffffffffffffffffffffffffffffff5d576e7357a4501ddfe92f46681b20a08260001c11156105cd576000935050505061064b565b601b8160ff16141580156105e55750601c8160ff1614155b156105f6576000935050505061064b565b6001868285856040516000815260200160405260405161061994939291906112cf565b6020604051602081039080840390855afa15801561063b573d6000803e3d6000fd5b5050506020604051035193505050505b92915050565b8073ffffffffffffffffffffffffffffffffffffffff1663ebcd31ac83336040518363ffffffff1660e01b815260040161068c9291906112a6565b600060405180830381600087803b1580156106a657600080fd5b505af11580156106ba573d6000803e3d6000fd5b505050505050565b60008060008060006060806106de6106d989610805565b61085c565b90506106fd816000815181106106f057fe5b6020026020010151610969565b61071a8260018151811061070d57fe5b6020026020010151610969565b6107378360028151811061072a57fe5b6020026020010151610969565b6107548460038151811061074757fe5b60200260200101516109ac565b6107718560048151811061076457fe5b6020026020010151610969565b61078e8660058151811061078157fe5b6020026020010151610a06565b9650965096509650965096505091939550919395565b600060048201835110156107cb576107ca6107c56003855160048601610a81565b610b06565b5b6020820191508183015190507fffffffff000000000000000000000000000000000000000000000000000000008116905080905092915050565b61080d610d82565b6000825114156108355760405180604001604052806000815260200160008152509050610857565b6000602083019050604051806040016040528084518152602001828152509150505b919050565b606061086782610b0e565b6108a6576040517f08c379a000000000000000000000000000000000000000000000000000000000815260040161089d906113eb565b60405180910390fd5b60006108b183610b47565b9050806040519080825280602002602001820160405280156108ed57816020015b6108da610d9c565b8152602001906001900390816108d25790505b50915060006108ff8460200151610ba2565b8460200151019050600080600090505b838110156109605761092083610c2b565b915060405180604001604052808381526020018481525085828151811061094357fe5b60200260200101819052508183019250808060010191505061090f565b50505050919050565b6000806109798360200151610ba2565b9050600081846000015103905060008285602001510190506000826020036101000a825104905080945050505050919050565b60006015826000015111156109f6576040517f08c379a00000000000000000000000000000000000000000000000000000000081526004016109ed9061136b565b60405180910390fd5b6109ff82610969565b9050919050565b60606000610a178360200151610ba2565b905060008184600001510390506060816040519080825280601f01601f191660200182016040528015610a595781602001600182028038833980820191505090505b5090506000816020019050610a75848760200151018285610cde565b81945050505050919050565b6060632800659560e01b848484604051602401610aa093929190611314565b604051602081830303815290604052907bffffffffffffffffffffffffffffffffffffffffffffffffffffffff19166020820180517bffffffffffffffffffffffffffffffffffffffffffffffffffffffff838183161783525050505090509392505050565b805160208201fd5b600080600083602001519050805160001a915060c060ff168260ff161015610b3b57600092505050610b42565b6001925050505b919050565b600080600090506000610b5d8460200151610ba2565b84602001510190506000846000015185602001510190505b80821015610b9757610b8682610c2b565b820191508280600101935050610b75565b829350505050919050565b600080825160001a9050608060ff16811015610bc2576000915050610c26565b60b860ff16811080610be7575060c060ff168110158015610be6575060f860ff1681105b5b15610bf6576001915050610c26565b60c060ff16811015610c165760018060b80360ff16820301915050610c26565b60018060f80360ff168203019150505b919050565b600080825160001a9050608060ff16811015610c4b576001915050610cd9565b60b860ff16811015610c69576001608060ff16820301915050610cd9565b60c060ff16811015610c995760b78103600184019350806020036101000a84510460018201810193505050610cd7565b60f860ff16811015610cb757600160c060ff16820301915050610cd9565b60f78103600184019350806020036101000a845104600182018101935050505b505b919050565b5b602060ff168110610d0e5782518252602060ff1683019250602060ff1682019150602060ff1681039050610cdf565b6000600182602060ff16036101000a0390508019845116818451168181178552505050505050565b6040518060c00160405280600081526020016000815260200160008152602001600073ffffffffffffffffffffffffffffffffffffffff16815260200160008152602001606081525090565b604051806040016040528060008152602001600081525090565b604051806040016040528060008152602001600081525090565b600082601f830112610dc757600080fd5b8135610dda610dd582611458565b61142b565b91508082526020830160208301858383011115610df657600080fd5b610e01838284611552565b50505092915050565b600081359050610e19816115dc565b92915050565b600080600080600060a08688031215610e3757600080fd5b600086013567ffffffffffffffff811115610e5157600080fd5b610e5d88828901610db6565b955050602086013567ffffffffffffffff811115610e7a57600080fd5b610e8688828901610db6565b945050604086013567ffffffffffffffff811115610ea357600080fd5b610eaf88828901610db6565b935050606086013567ffffffffffffffff811115610ecc57600080fd5b610ed888828901610db6565b9250506080610ee988828901610e0a565b9150509295509295909350565b600080600060608486031215610f0b57600080fd5b600084013567ffffffffffffffff811115610f2557600080fd5b610f3186828701610db6565b935050602084013567ffffffffffffffff811115610f4e57600080fd5b610f5a86828701610db6565b9250506040610f6b86828701610e0a565b9150509250925092565b610f7e816114c8565b82525050565b610f8d816114b6565b82525050565b610fa4610f9f826114b6565b611594565b82525050565b610fb3816114da565b82525050565b6000610fc48261148f565b610fce818561149a565b9350610fde818560208601611561565b80840191505092915050565b6000610ff582611484565b610fff818561149a565b935061100f818560208601611561565b80840191505092915050565b61102481611540565b82525050565b60006110376017836114a5565b91507f4c6567616c2072656c6179207472616e73616374696f6e0000000000000000006000830152602082019050919050565b6000611077603a836114a5565b91507f496e76616c696420524c504974656d2e2041646472657373657320617265206560008301527f6e636f64656420696e203230206279746573206f72206c6573730000000000006020830152604082019050919050565b60006110dd600f836114a5565b91507f446966666572656e74206e6f6e636500000000000000000000000000000000006000830152602082019050919050565b600061111d6010836114a5565b91507f446966666572656e74207369676e6572000000000000000000000000000000006000830152602082019050919050565b600061115d600b836114a5565b91507f747820697320657175616c0000000000000000000000000000000000000000006000830152602082019050919050565b600061119d600d836114a5565b91507f69734c697374206661696c6564000000000000000000000000000000000000006000830152602082019050919050565b60006111dd6010836114a5565b91507f65637265636f766572206661696c6564000000000000000000000000000000006000830152602082019050919050565b61121981611529565b82525050565b61123061122b82611529565b6115b8565b82525050565b61123f81611533565b82525050565b60006112518284610fb9565b915081905092915050565b60006112688287610fea565b9150611274828661121f565b6020820191506112848285610f93565b601482019150611294828461121f565b60208201915081905095945050505050565b60006040820190506112bb6000830185610f84565b6112c86020830184610f75565b9392505050565b60006080820190506112e46000830187610faa565b6112f16020830186611236565b6112fe6040830185610faa565b61130b6060830184610faa565b95945050505050565b6000606082019050611329600083018661101b565b6113366020830185611210565b6113436040830184611210565b949350505050565b600060208201905081810360008301526113648161102a565b9050919050565b600060208201905081810360008301526113848161106a565b9050919050565b600060208201905081810360008301526113a4816110d0565b9050919050565b600060208201905081810360008301526113c481611110565b9050919050565b600060208201905081810360008301526113e481611150565b9050919050565b6000602082019050818103600083015261140481611190565b9050919050565b60006020820190508181036000830152611424816111d0565b9050919050565b6000604051905081810181811067ffffffffffffffff8211171561144e57600080fd5b8060405250919050565b600067ffffffffffffffff82111561146f57600080fd5b601f19601f8301169050602081019050919050565b600081519050919050565b600081519050919050565b600081905092915050565b600082825260208201905092915050565b60006114c182611509565b9050919050565b60006114d382611509565b9050919050565b6000819050919050565b60006114ef826114b6565b9050919050565b6000819050611504826115cf565b919050565b600073ffffffffffffffffffffffffffffffffffffffff82169050919050565b6000819050919050565b600060ff82169050919050565b600061154b826114f6565b9050919050565b82818337600083830152505050565b60005b8381101561157f578082015181840152602081019050611564565b8381111561158e576000848401525b50505050565b600061159f826115a6565b9050919050565b60006115b1826115c2565b9050919050565b6000819050919050565b60008160601b9050919050565b600881106115d957fe5b50565b6115e5816114e4565b81146115f057600080fd5b5056fea365627a7a72315820a3740a3438d2f232dec11d4f49b0a6f78d79e62dd346443bfea4329efc844f446c6578706572696d656e74616cf564736f6c63430005100040",
  "source": "pragma solidity ^0.5.16;\npragma experimental ABIEncoderV2;\n\nimport \"openzeppelin-solidity/contracts/cryptography/ECDSA.sol\";\n\nimport \"./utils/RLPReader.sol\";\nimport \"./utils/GsnUtils.sol\";\nimport \"./interfaces/IRelayHub.sol\";\n\ncontract Penalizer {\n    using ECDSA for bytes32;\n\n    struct Transaction {\n        uint256 nonce;\n        uint256 gasPrice;\n        uint256 gasLimit;\n        address to;\n        uint256 value;\n        bytes data;\n    }\n\n    function decodeTransaction(bytes memory rawTransaction) private pure returns (Transaction memory transaction) {\n        (transaction.nonce,\n        transaction.gasPrice,\n        transaction.gasLimit,\n        transaction.to,\n        transaction.value,\n        transaction.data) = RLPReader.decodeTransaction(rawTransaction);\n        return transaction;\n\n    }\n\n    function penalizeRepeatedNonce(\n        bytes memory unsignedTx1,\n        bytes memory signature1,\n        bytes memory unsignedTx2,\n        bytes memory signature2,\n        IRelayHub hub\n    ) public\n    {\n        // Can be called by anyone.\n        // If a relay attacked the system by signing multiple transactions with the same nonce\n        // (so only one is accepted), anyone can grab both transactions from the blockchain and submit them here.\n        // Check whether unsignedTx1 != unsignedTx2, that both are signed by the same address,\n        // and that unsignedTx1.nonce == unsignedTx2.nonce.\n        // If all conditions are met, relay is considered an \"offending relay\".\n        // The offending relay will be unregistered immediately, its stake will be forfeited and given\n        // to the address who reported it (msg.sender), thus incentivizing anyone to report offending relays.\n        // If reported via a relay, the forfeited stake is split between\n        // msg.sender (the relay used for reporting) and the address that reported it.\n\n        address addr1 = keccak256(abi.encodePacked(unsignedTx1)).recover(signature1);\n        address addr2 = keccak256(abi.encodePacked(unsignedTx2)).recover(signature2);\n\n        require(addr1 == addr2, \"Different signer\");\n        require(addr1 != address(0), \"ecrecover failed\");\n\n        Transaction memory decodedTx1 = decodeTransaction(unsignedTx1);\n        Transaction memory decodedTx2 = decodeTransaction(unsignedTx2);\n\n        // checking that the same nonce is used in both transaction, with both signed by the same address\n        // and the actual data is different\n        // note: we compare the hash of the tx to save gas over iterating both byte arrays\n        require(decodedTx1.nonce == decodedTx2.nonce, \"Different nonce\");\n\n        bytes memory dataToCheck1 =\n        abi.encodePacked(decodedTx1.data, decodedTx1.gasLimit, decodedTx1.to, decodedTx1.value);\n\n        bytes memory dataToCheck2 =\n        abi.encodePacked(decodedTx2.data, decodedTx2.gasLimit, decodedTx2.to, decodedTx2.value);\n\n        require(keccak256(dataToCheck1) != keccak256(dataToCheck2), \"tx is equal\");\n\n        penalize(addr1, hub);\n    }\n\n    function penalizeIllegalTransaction(\n        bytes memory unsignedTx,\n        bytes memory signature,\n        IRelayHub hub\n    ) public {\n        Transaction memory decodedTx = decodeTransaction(unsignedTx);\n        if (decodedTx.to == address(hub)) {\n            bytes4 selector = GsnUtils.getMethodSig(decodedTx.data);\n            require(\n                selector != hub.relayCall.selector,\n                \"Legal relay transaction\");\n        }\n        address relay = keccak256(abi.encodePacked(unsignedTx)).recover(signature);\n        require(relay != address(0), \"ecrecover failed\");\n\n        penalize(relay, hub);\n    }\n\n    function penalize(address relayWorker, IRelayHub hub) private {\n        hub.penalize(relayWorker, msg.sender);\n    }\n}",
  "sourcePath": "@opengsn/gsn/contracts/Penalizer.sol",
  "compiler": {
    "name": "solc",
    "version": "0.5.16+commit.9c3226ce.Emscripten.clang"
  },
  "schemaVersion": "3.1.0",
  "updatedAt": "2020-06-07T13:11:36.671Z",
  "devdoc": {
    "methods": {}
  },
  "userdoc": {
    "methods": {}
  }
}