{
  "contractName": "RelayHub",
  "abi": [
    {
      "inputs": [
        {
          "internalType": "uint256",
          "name": "_gtxdatanonzero",
          "type": "uint256"
        },
        {
          "internalType": "contract StakeManager",
          "name": "_stakeManager",
          "type": "address"
        },
        {
          "internalType": "contract Penalizer",
          "name": "_penalizer",
          "type": "address"
        }
      ],
      "payable": false,
      "stateMutability": "nonpayable",
      "type": "constructor"
    },
    {
      "anonymous": false,
      "inputs": [
        {
          "indexed": true,
          "internalType": "address",
          "name": "relayManager",
          "type": "address"
        },
        {
          "indexed": true,
          "internalType": "address",
          "name": "relayWorker",
          "type": "address"
        },
        {
          "indexed": true,
          "internalType": "address",
          "name": "from",
          "type": "address"
        },
        {
          "indexed": false,
          "internalType": "address",
          "name": "to",
          "type": "address"
        },
        {
          "indexed": false,
          "internalType": "address",
          "name": "paymaster",
          "type": "address"
        },
        {
          "indexed": false,
          "internalType": "bytes4",
          "name": "selector",
          "type": "bytes4"
        },
        {
          "indexed": false,
          "internalType": "string",
          "name": "reason",
          "type": "string"
        }
      ],
      "name": "CanRelayFailed",
      "type": "event"
    },
    {
      "anonymous": false,
      "inputs": [
        {
          "indexed": true,
          "internalType": "address",
          "name": "paymaster",
          "type": "address"
        },
        {
          "indexed": true,
          "internalType": "address",
          "name": "from",
          "type": "address"
        },
        {
          "indexed": false,
          "internalType": "uint256",
          "name": "amount",
          "type": "uint256"
        }
      ],
      "name": "Deposited",
      "type": "event"
    },
    {
      "anonymous": false,
      "inputs": [
        {
          "indexed": true,
          "internalType": "address",
          "name": "relayWorker",
          "type": "address"
        },
        {
          "indexed": false,
          "internalType": "address",
          "name": "sender",
          "type": "address"
        },
        {
          "indexed": false,
          "internalType": "uint256",
          "name": "reward",
          "type": "uint256"
        }
      ],
      "name": "Penalized",
      "type": "event"
    },
    {
      "anonymous": false,
      "inputs": [
        {
          "indexed": true,
          "internalType": "address",
          "name": "relayManager",
          "type": "address"
        },
        {
          "indexed": false,
          "internalType": "uint256",
          "name": "baseRelayFee",
          "type": "uint256"
        },
        {
          "indexed": false,
          "internalType": "uint256",
          "name": "pctRelayFee",
          "type": "uint256"
        },
        {
          "indexed": false,
          "internalType": "string",
          "name": "url",
          "type": "string"
        }
      ],
      "name": "RelayServerRegistered",
      "type": "event"
    },
    {
      "anonymous": false,
      "inputs": [
        {
          "indexed": true,
          "internalType": "address",
          "name": "relayManager",
          "type": "address"
        },
        {
          "indexed": false,
          "internalType": "address[]",
          "name": "newRelayWorkers",
          "type": "address[]"
        },
        {
          "indexed": false,
          "internalType": "uint256",
          "name": "workersCount",
          "type": "uint256"
        }
      ],
      "name": "RelayWorkersAdded",
      "type": "event"
    },
    {
      "anonymous": false,
      "inputs": [
        {
          "indexed": true,
          "internalType": "address",
          "name": "relayManager",
          "type": "address"
        },
        {
          "indexed": true,
          "internalType": "address",
          "name": "relayWorker",
          "type": "address"
        },
        {
          "indexed": true,
          "internalType": "address",
          "name": "from",
          "type": "address"
        },
        {
          "indexed": false,
          "internalType": "address",
          "name": "to",
          "type": "address"
        },
        {
          "indexed": false,
          "internalType": "address",
          "name": "paymaster",
          "type": "address"
        },
        {
          "indexed": false,
          "internalType": "bytes4",
          "name": "selector",
          "type": "bytes4"
        },
        {
          "indexed": false,
          "internalType": "enum IRelayHub.RelayCallStatus",
          "name": "status",
          "type": "uint8"
        },
        {
          "indexed": false,
          "internalType": "uint256",
          "name": "charge",
          "type": "uint256"
        }
      ],
      "name": "TransactionRelayed",
      "type": "event"
    },
    {
      "anonymous": false,
      "inputs": [
        {
          "indexed": true,
          "internalType": "address",
          "name": "account",
          "type": "address"
        },
        {
          "indexed": true,
          "internalType": "address",
          "name": "dest",
          "type": "address"
        },
        {
          "indexed": false,
          "internalType": "uint256",
          "name": "amount",
          "type": "uint256"
        }
      ],
      "name": "Withdrawn",
      "type": "event"
    },
    {
      "constant": true,
      "inputs": [],
      "name": "COMMIT_ID",
      "outputs": [
        {
          "internalType": "string",
          "name": "",
          "type": "string"
        }
      ],
      "payable": false,
      "stateMutability": "view",
      "type": "function"
    },
    {
      "constant": true,
      "inputs": [],
      "name": "GTRANSACTION",
      "outputs": [
        {
          "internalType": "uint256",
          "name": "",
          "type": "uint256"
        }
      ],
      "payable": false,
      "stateMutability": "view",
      "type": "function"
    },
    {
      "constant": true,
      "inputs": [],
      "name": "MAX_WORKER_COUNT",
      "outputs": [
        {
          "internalType": "uint256",
          "name": "",
          "type": "uint256"
        }
      ],
      "payable": false,
      "stateMutability": "view",
      "type": "function"
    },
    {
      "constant": true,
      "inputs": [],
      "name": "eip712sig",
      "outputs": [
        {
          "internalType": "contract EIP712Sig",
          "name": "",
          "type": "address"
        }
      ],
      "payable": false,
      "stateMutability": "view",
      "type": "function"
    },
    {
      "constant": true,
      "inputs": [],
      "name": "gtxdatanonzero",
      "outputs": [
        {
          "internalType": "uint256",
          "name": "",
          "type": "uint256"
        }
      ],
      "payable": false,
      "stateMutability": "view",
      "type": "function"
    },
    {
      "constant": true,
      "inputs": [],
      "name": "penalizer",
      "outputs": [
        {
          "internalType": "contract Penalizer",
          "name": "",
          "type": "address"
        }
      ],
      "payable": false,
      "stateMutability": "view",
      "type": "function"
    },
    {
      "constant": true,
      "inputs": [],
      "name": "stakeManager",
      "outputs": [
        {
          "internalType": "contract StakeManager",
          "name": "",
          "type": "address"
        }
      ],
      "payable": false,
      "stateMutability": "view",
      "type": "function"
    },
    {
      "constant": true,
      "inputs": [],
      "name": "version",
      "outputs": [
        {
          "internalType": "string",
          "name": "",
          "type": "string"
        }
      ],
      "payable": false,
      "stateMutability": "view",
      "type": "function"
    },
    {
      "constant": true,
      "inputs": [],
      "name": "getHubOverhead",
      "outputs": [
        {
          "internalType": "uint256",
          "name": "",
          "type": "uint256"
        }
      ],
      "payable": false,
      "stateMutability": "view",
      "type": "function"
    },
    {
      "constant": true,
      "inputs": [],
      "name": "getVersion",
      "outputs": [
        {
          "internalType": "string",
          "name": "",
          "type": "string"
        }
      ],
      "payable": false,
      "stateMutability": "view",
      "type": "function"
    },
    {
      "constant": true,
      "inputs": [],
      "name": "getStakeManager",
      "outputs": [
        {
          "internalType": "address",
          "name": "",
          "type": "address"
        }
      ],
      "payable": false,
      "stateMutability": "view",
      "type": "function"
    },
    {
      "constant": false,
      "inputs": [
        {
          "internalType": "uint256",
          "name": "baseRelayFee",
          "type": "uint256"
        },
        {
          "internalType": "uint256",
          "name": "pctRelayFee",
          "type": "uint256"
        },
        {
          "internalType": "string",
          "name": "url",
          "type": "string"
        }
      ],
      "name": "registerRelayServer",
      "outputs": [],
      "payable": false,
      "stateMutability": "nonpayable",
      "type": "function"
    },
    {
      "constant": false,
      "inputs": [
        {
          "internalType": "address[]",
          "name": "newRelayWorkers",
          "type": "address[]"
        }
      ],
      "name": "addRelayWorkers",
      "outputs": [],
      "payable": false,
      "stateMutability": "nonpayable",
      "type": "function"
    },
    {
      "constant": false,
      "inputs": [
        {
          "internalType": "address",
          "name": "target",
          "type": "address"
        }
      ],
      "name": "depositFor",
      "outputs": [],
      "payable": true,
      "stateMutability": "payable",
      "type": "function"
    },
    {
      "constant": true,
      "inputs": [
        {
          "internalType": "address",
          "name": "target",
          "type": "address"
        }
      ],
      "name": "balanceOf",
      "outputs": [
        {
          "internalType": "uint256",
          "name": "",
          "type": "uint256"
        }
      ],
      "payable": false,
      "stateMutability": "view",
      "type": "function"
    },
    {
      "constant": false,
      "inputs": [
        {
          "internalType": "uint256",
          "name": "amount",
          "type": "uint256"
        },
        {
          "internalType": "address payable",
          "name": "dest",
          "type": "address"
        }
      ],
      "name": "withdraw",
      "outputs": [],
      "payable": false,
      "stateMutability": "nonpayable",
      "type": "function"
    },
    {
      "constant": true,
      "inputs": [
        {
          "components": [
            {
              "internalType": "address",
              "name": "target",
              "type": "address"
            },
            {
              "internalType": "bytes",
              "name": "encodedFunction",
              "type": "bytes"
            },
            {
              "components": [
                {
                  "internalType": "uint256",
                  "name": "gasLimit",
                  "type": "uint256"
                },
                {
                  "internalType": "uint256",
                  "name": "gasPrice",
                  "type": "uint256"
                },
                {
                  "internalType": "uint256",
                  "name": "pctRelayFee",
                  "type": "uint256"
                },
                {
                  "internalType": "uint256",
                  "name": "baseRelayFee",
                  "type": "uint256"
                }
              ],
              "internalType": "struct GSNTypes.GasData",
              "name": "gasData",
              "type": "tuple"
            },
            {
              "components": [
                {
                  "internalType": "address",
                  "name": "senderAddress",
                  "type": "address"
                },
                {
                  "internalType": "uint256",
                  "name": "senderNonce",
                  "type": "uint256"
                },
                {
                  "internalType": "address",
                  "name": "relayWorker",
                  "type": "address"
                },
                {
                  "internalType": "address",
                  "name": "paymaster",
                  "type": "address"
                }
              ],
              "internalType": "struct GSNTypes.RelayData",
              "name": "relayData",
              "type": "tuple"
            }
          ],
          "internalType": "struct GSNTypes.RelayRequest",
          "name": "relayRequest",
          "type": "tuple"
        },
        {
          "internalType": "uint256",
          "name": "maxPossibleGas",
          "type": "uint256"
        },
        {
          "internalType": "uint256",
          "name": "acceptRelayedCallGasLimit",
          "type": "uint256"
        },
        {
          "internalType": "bytes",
          "name": "signature",
          "type": "bytes"
        },
        {
          "internalType": "bytes",
          "name": "approvalData",
          "type": "bytes"
        }
      ],
      "name": "canRelay",
      "outputs": [
        {
          "internalType": "bool",
          "name": "success",
          "type": "bool"
        },
        {
          "internalType": "string",
          "name": "returnValue",
          "type": "string"
        }
      ],
      "payable": false,
      "stateMutability": "view",
      "type": "function"
    },
    {
      "constant": false,
      "inputs": [
        {
          "components": [
            {
              "internalType": "address",
              "name": "target",
              "type": "address"
            },
            {
              "internalType": "bytes",
              "name": "encodedFunction",
              "type": "bytes"
            },
            {
              "components": [
                {
                  "internalType": "uint256",
                  "name": "gasLimit",
                  "type": "uint256"
                },
                {
                  "internalType": "uint256",
                  "name": "gasPrice",
                  "type": "uint256"
                },
                {
                  "internalType": "uint256",
                  "name": "pctRelayFee",
                  "type": "uint256"
                },
                {
                  "internalType": "uint256",
                  "name": "baseRelayFee",
                  "type": "uint256"
                }
              ],
              "internalType": "struct GSNTypes.GasData",
              "name": "gasData",
              "type": "tuple"
            },
            {
              "components": [
                {
                  "internalType": "address",
                  "name": "senderAddress",
                  "type": "address"
                },
                {
                  "internalType": "uint256",
                  "name": "senderNonce",
                  "type": "uint256"
                },
                {
                  "internalType": "address",
                  "name": "relayWorker",
                  "type": "address"
                },
                {
                  "internalType": "address",
                  "name": "paymaster",
                  "type": "address"
                }
              ],
              "internalType": "struct GSNTypes.RelayData",
              "name": "relayData",
              "type": "tuple"
            }
          ],
          "internalType": "struct GSNTypes.RelayRequest",
          "name": "relayRequest",
          "type": "tuple"
        },
        {
          "internalType": "bytes",
          "name": "signature",
          "type": "bytes"
        },
        {
          "internalType": "bytes",
          "name": "approvalData",
          "type": "bytes"
        }
      ],
      "name": "relayCall",
      "outputs": [],
      "payable": false,
      "stateMutability": "nonpayable",
      "type": "function"
    },
    {
      "constant": false,
      "inputs": [
        {
          "components": [
            {
              "internalType": "address",
              "name": "target",
              "type": "address"
            },
            {
              "internalType": "bytes",
              "name": "encodedFunction",
              "type": "bytes"
            },
            {
              "components": [
                {
                  "internalType": "uint256",
                  "name": "gasLimit",
                  "type": "uint256"
                },
                {
                  "internalType": "uint256",
                  "name": "gasPrice",
                  "type": "uint256"
                },
                {
                  "internalType": "uint256",
                  "name": "pctRelayFee",
                  "type": "uint256"
                },
                {
                  "internalType": "uint256",
                  "name": "baseRelayFee",
                  "type": "uint256"
                }
              ],
              "internalType": "struct GSNTypes.GasData",
              "name": "gasData",
              "type": "tuple"
            },
            {
              "components": [
                {
                  "internalType": "address",
                  "name": "senderAddress",
                  "type": "address"
                },
                {
                  "internalType": "uint256",
                  "name": "senderNonce",
                  "type": "uint256"
                },
                {
                  "internalType": "address",
                  "name": "relayWorker",
                  "type": "address"
                },
                {
                  "internalType": "address",
                  "name": "paymaster",
                  "type": "address"
                }
              ],
              "internalType": "struct GSNTypes.RelayData",
              "name": "relayData",
              "type": "tuple"
            }
          ],
          "internalType": "struct GSNTypes.RelayRequest",
          "name": "relayRequest",
          "type": "tuple"
        },
        {
          "internalType": "bytes",
          "name": "signature",
          "type": "bytes"
        },
        {
          "components": [
            {
              "internalType": "uint256",
              "name": "acceptRelayedCallGasLimit",
              "type": "uint256"
            },
            {
              "internalType": "uint256",
              "name": "preRelayedCallGasLimit",
              "type": "uint256"
            },
            {
              "internalType": "uint256",
              "name": "postRelayedCallGasLimit",
              "type": "uint256"
            }
          ],
          "internalType": "struct GSNTypes.GasLimits",
          "name": "gasLimits",
          "type": "tuple"
        },
        {
          "internalType": "uint256",
          "name": "totalInitialGas",
          "type": "uint256"
        },
        {
          "internalType": "uint256",
          "name": "calldataGas",
          "type": "uint256"
        },
        {
          "internalType": "bytes",
          "name": "recipientContext",
          "type": "bytes"
        }
      ],
      "name": "recipientCallsAtomic",
      "outputs": [
        {
          "internalType": "enum IRelayHub.RelayCallStatus",
          "name": "",
          "type": "uint8"
        }
      ],
      "payable": false,
      "stateMutability": "nonpayable",
      "type": "function"
    },
    {
      "constant": true,
      "inputs": [
        {
          "internalType": "uint256",
          "name": "gasUsed",
          "type": "uint256"
        },
        {
          "components": [
            {
              "internalType": "uint256",
              "name": "gasLimit",
              "type": "uint256"
            },
            {
              "internalType": "uint256",
              "name": "gasPrice",
              "type": "uint256"
            },
            {
              "internalType": "uint256",
              "name": "pctRelayFee",
              "type": "uint256"
            },
            {
              "internalType": "uint256",
              "name": "baseRelayFee",
              "type": "uint256"
            }
          ],
          "internalType": "struct GSNTypes.GasData",
          "name": "gasData",
          "type": "tuple"
        }
      ],
      "name": "calculateCharge",
      "outputs": [
        {
          "internalType": "uint256",
          "name": "",
          "type": "uint256"
        }
      ],
      "payable": false,
      "stateMutability": "view",
      "type": "function"
    },
    {
      "constant": false,
      "inputs": [
        {
          "internalType": "address",
          "name": "relayWorker",
          "type": "address"
        },
        {
          "internalType": "address payable",
          "name": "beneficiary",
          "type": "address"
        }
      ],
      "name": "penalize",
      "outputs": [],
      "payable": false,
      "stateMutability": "nonpayable",
      "type": "function"
    }
  ],
  "bytecode": "0x60806040526040518060400160405280600581526020017f312e302e30000000000000000000000000000000000000000000000000000000815250600490805190602001906200005192919062000190565b503480156200005f57600080fd5b50604051620062a3380380620062a3833981810160405262000085919081019062000292565b30604051620000949062000217565b620000a09190620002f9565b604051809103906000f080158015620000bd573d6000803e3d6000fd5b50600560006101000a81548173ffffffffffffffffffffffffffffffffffffffff021916908373ffffffffffffffffffffffffffffffffffffffff16021790555081600660006101000a81548173ffffffffffffffffffffffffffffffffffffffff021916908373ffffffffffffffffffffffffffffffffffffffff16021790555080600760006101000a81548173ffffffffffffffffffffffffffffffffffffffff021916908373ffffffffffffffffffffffffffffffffffffffff16021790555082600081905550505050620003ca565b828054600181600116156101000203166002900490600052602060002090601f016020900481019282601f10620001d357805160ff191683800117855562000204565b8280016001018555821562000204579182015b8281111562000203578251825591602001919060010190620001e6565b5b50905062000213919062000225565b5090565b6111d080620050d383390190565b6200024a91905b80821115620002465760008160009055506001016200022c565b5090565b90565b6000815190506200025e816200037c565b92915050565b600081519050620002758162000396565b92915050565b6000815190506200028c81620003b0565b92915050565b600080600060608486031215620002a857600080fd5b6000620002b8868287016200027b565b9350506020620002cb8682870162000264565b9250506040620002de868287016200024d565b9150509250925092565b620002f38162000316565b82525050565b6000602082019050620003106000830184620002e8565b92915050565b6000620003238262000352565b9050919050565b6000620003378262000316565b9050919050565b60006200034b8262000316565b9050919050565b600073ffffffffffffffffffffffffffffffffffffffff82169050919050565b6000819050919050565b62000387816200032a565b81146200039357600080fd5b50565b620003a1816200033e565b8114620003ad57600080fd5b50565b620003bb8162000372565b8114620003c757600080fd5b50565b614cf980620003da6000396000f3fe6080604052600436106101295760003560e01c8063663c8186116100ab578063c0f6a4471161006f578063c0f6a447146103d4578063c2da078614610412578063c4775a681461043b578063ca64f9e714610466578063e1decef314610491578063ebcd31ac146104bc57610129565b8063663c8186146102fc57806370a08231146103275780637542ff951461036457806383b718711461038f578063aa67c919146103b857610129565b806332838662116100f25780633283866214610225578063334529851461025057806354fd4d501461027b5780635c177b12146102a6578063633ed2c3146102d157610129565b8062f714ce1461012e578063068865251461015757806309b8983c146101945780630d8e6e2c146101bd57806311d77486146101e8575b600080fd5b34801561013a57600080fd5b50610155600480360361015091908101906136bd565b6104e5565b005b34801561016357600080fd5b5061017e60048036036101799190810190613522565b61066a565b60405161018b91906144cb565b60405180910390f35b3480156101a057600080fd5b506101bb60048036036101b69190810190613481565b610bac565b005b3480156101c957600080fd5b506101d26115f5565b6040516101df9190614508565b60405180910390f35b3480156101f457600080fd5b5061020f600480360361020a91908101906136f9565b611697565b60405161021c9190614818565b60405180910390f35b34801561023157600080fd5b5061023a6116c1565b60405161024791906144e6565b60405180910390f35b34801561025c57600080fd5b506102656116dd565b6040516102729190614443565b60405180910390f35b34801561028757600080fd5b50610290611703565b60405161029d91906144e6565b60405180910390f35b3480156102b257600080fd5b506102bb6117a1565b6040516102c89190614818565b60405180910390f35b3480156102dd57600080fd5b506102e66117a7565b6040516102f39190614818565b60405180910390f35b34801561030857600080fd5b506103116117ac565b60405161031e9190614818565b60405180910390f35b34801561033357600080fd5b5061034e600480360361034991908101906131d1565b6117b2565b60405161035b9190614818565b60405180910390f35b34801561037057600080fd5b506103796117fb565b6040516103869190614479565b60405180910390f35b34801561039b57600080fd5b506103b660048036036103b19190810190613735565b611821565b005b6103d260048036036103cd91908101906131d1565b6119fb565b005b3480156103e057600080fd5b506103fb60048036036103f691908101906135fe565b611b40565b604051610409929190614392565b60405180910390f35b34801561041e57600080fd5b5061043960048036036104349190810190613288565b611f15565b005b34801561044757600080fd5b5061045061235e565b60405161045d919061445e565b60405180910390f35b34801561047257600080fd5b5061047b612384565b6040516104889190614238565b60405180910390f35b34801561049d57600080fd5b506104a66123ae565b6040516104b39190614818565b60405180910390f35b3480156104c857600080fd5b506104e360048036036104de919081019061324c565b6123b8565b005b600033905082600360008373ffffffffffffffffffffffffffffffffffffffff1673ffffffffffffffffffffffffffffffffffffffff16815260200190815260200160002054101561056c576040517f08c379a00000000000000000000000000000000000000000000000000000000081526004016105639061468a565b60405180910390fd5b82600360008373ffffffffffffffffffffffffffffffffffffffff1673ffffffffffffffffffffffffffffffffffffffff168152602001908152602001600020600082825403925050819055508173ffffffffffffffffffffffffffffffffffffffff166108fc849081150290604051600060405180830381858888f193505050501580156105ff573d6000803e3d6000fd5b508173ffffffffffffffffffffffffffffffffffffffff168173ffffffffffffffffffffffffffffffffffffffff167fd1c19fbcd4551a5edfb66d43d2e337c04837afda3482b42bdf569a8fccdae5fb8560405161065d9190614818565b60405180910390a3505050565b6000610674612c18565b3073ffffffffffffffffffffffffffffffffffffffff163373ffffffffffffffffffffffffffffffffffffffff16146106e2576040517f08c379a00000000000000000000000000000000000000000000000000000000081526004016106d99061456a565b60405180910390fd5b600360008b60c00160600160206106fc91908101906131d1565b73ffffffffffffffffffffffffffffffffffffffff1673ffffffffffffffffffffffffffffffffffffffff16815260200190815260200160002054816000018181525050600073ffffffffffffffffffffffffffffffffffffffff166380274db7905060e01b84846040516024016107759291906143c2565b604051602081830303815290604052907bffffffffffffffffffffffffffffffffffffffffffffffffffffffff19166020820180517bffffffffffffffffffffffffffffffffffffffffffffffffffffffff83818316178352505050508160600181905250600060608b60c00160600160206107f491908101906131d1565b73ffffffffffffffffffffffffffffffffffffffff1689602001358460600151604051610821919061420a565b60006040518083038160008787f1925050503d806000811461085f576040519150601f19603f3d011682016040523d82523d6000602084013e610864565b606091505b5080925081935050508161087d5761087c600261275d565b5b80806020019051610891919081019061334a565b83602001818152505050508960000160206108af91908101906131d1565b73ffffffffffffffffffffffffffffffffffffffff1663ce1b815f6040518163ffffffff1660e01b815260040160206040518083038186803b1580156108f457600080fd5b505afa158015610908573d6000803e3d6000fd5b505050506040513d601f19601f8201168201806040525061092c91908101906131fa565b73ffffffffffffffffffffffffffffffffffffffff1663b21051f88b8b8b6040518463ffffffff1660e01b8152600401610968939291906146ea565b600060405180830381600087803b15801561098257600080fd5b505af1158015610996573d6000803e3d6000fd5b505050506040513d6000823e3d601f19601f820116820180604052506109bf91908101906132f6565b5081604001811515151581525050600073ffffffffffffffffffffffffffffffffffffffff1663fbfbd0f2905060e01b8484836040015184602001518961938a5a8d0301018f604001604051602401610a1d969594939291906143e6565b604051602081830303815290604052907bffffffffffffffffffffffffffffffffffffffffffffffffffffffff19166020820180517bffffffffffffffffffffffffffffffffffffffffffffffffffffffff8381831617835250505050816060018190525060008a60c0016060016020610a9a91908101906131d1565b73ffffffffffffffffffffffffffffffffffffffff1688604001358360600151604051610ac7919061420a565b60006040518083038160008787f1925050503d8060008114610b05576040519150601f19603f3d011682016040523d82523d6000602084013e610b0a565b606091505b5050905080610b1e57610b1d600361275d565b5b8160000151600360008d60c0016060016020610b3d91908101906131d1565b73ffffffffffffffffffffffffffffffffffffffff1673ffffffffffffffffffffffffffffffffffffffff168152602001908152602001600020541015610b8957610b88600461275d565b5b8160400151610b99576001610b9c565b60005b9250505098975050505050505050565b60005a90506000610c52878060200180356001602003833603038112610bd157600080fd5b8083019250508135905060208201915067ffffffffffffffff811115610bf657600080fd5b600181023603821315610c0857600080fd5b8080601f016020809104026020016040519081016040528093929190818152602001838380828437600081840152601f19601f82011690508083019250505050505050600061278b565b9050600073ffffffffffffffffffffffffffffffffffffffff16600160003373ffffffffffffffffffffffffffffffffffffffff1673ffffffffffffffffffffffffffffffffffffffff16815260200190815260200160002060009054906101000a900473ffffffffffffffffffffffffffffffffffffffff1673ffffffffffffffffffffffffffffffffffffffff161415610d23576040517f08c379a0000000000000000000000000000000000000000000000000000000008152600401610d1a906146ca565b60405180910390fd5b600660009054906101000a900473ffffffffffffffffffffffffffffffffffffffff1673ffffffffffffffffffffffffffffffffffffffff1663dd687862600160003373ffffffffffffffffffffffffffffffffffffffff1673ffffffffffffffffffffffffffffffffffffffff16815260200190815260200160002060009054906101000a900473ffffffffffffffffffffffffffffffffffffffff16670de0b6b3a76400006103e86040518463ffffffff1660e01b8152600401610deb93929190614329565b60206040518083038186803b158015610e0357600080fd5b505afa158015610e17573d6000803e3d6000fd5b505050506040513d601f19601f82011682018060405250610e3b91908101906132cd565b610e7a576040517f08c379a0000000000000000000000000000000000000000000000000000000008152600401610e719061460a565b60405180910390fd5b3a87604001602001351115610ec4576040517f08c379a0000000000000000000000000000000000000000000000000000000008152600401610ebb906145ca565b60405180910390fd5b6060610ece612c45565b6000610f03858b604001803603610ee89190810190613406565b8c60c0016060016020610efe91908101906131d1565b6127ec565b809350819250505060006110a860405180608001604052808d6000016020610f2e91908101906131d1565b73ffffffffffffffffffffffffffffffffffffffff1681526020018d8060200180356001602003833603038112610f6457600080fd5b8083019250508135905060208201915067ffffffffffffffff811115610f8957600080fd5b600181023603821315610f9b57600080fd5b8080601f016020809104026020016040519081016040528093929190818152602001838380828437600081840152601f19601f8201169050808301925050505050505081526020018d604001803603610ff791908101906133dd565b81526020018d60c0018036036110109190810190613458565b8152508385600001518d8d8080601f016020809104026020016040519081016040528093929190818152602001838380828437600081840152601f19601f820116905080830192505050505050508c8c8080601f016020809104026020016040519081016040528093929190818152602001838380828437600081840152601f19601f82011690508083019250505050505050611b40565b8095508192505050806111dd578a60c00160000160206110cb91908101906131d1565b73ffffffffffffffffffffffffffffffffffffffff163373ffffffffffffffffffffffffffffffffffffffff16600160003373ffffffffffffffffffffffffffffffffffffffff1673ffffffffffffffffffffffffffffffffffffffff16815260200190815260200160002060009054906101000a900473ffffffffffffffffffffffffffffffffffffffff1673ffffffffffffffffffffffffffffffffffffffff167f18d1605753700a9b48e43123a6aef09c0abd2126f7d36fdb0c5ee174ac8679238e60000160206111a291908101906131d1565b8f60c00160600160206111b891908101906131d1565b8a8a6040516111ca94939291906142dd565b60405180910390a45050505050506115ee565b505060006060630688652560e01b8b8b8b868a6111f8612989565b8a60405160240161120f9796959493929190614723565b604051602081830303815290604052907bffffffffffffffffffffffffffffffffffffffffffffffffffffffff19166020820180517bffffffffffffffffffffffffffffffffffffffffffffffffffffffff8381831617835250505050905060603073ffffffffffffffffffffffffffffffffffffffff16826040516112959190614221565b6000604051808303816000865af19150503d80600081146112d2576040519150601f19603f3d011682016040523d82523d6000602084013e6112d7565b606091505b50915050808060200190516112ef9190810190613373565b92505050600061132161938a5a8803611306612989565b01018c60400180360361131c9190810190613406565b611697565b905080600360008d60c001606001602061133e91908101906131d1565b73ffffffffffffffffffffffffffffffffffffffff1673ffffffffffffffffffffffffffffffffffffffff1681526020019081526020016000205410156113ba576040517f08c379a00000000000000000000000000000000000000000000000000000000081526004016113b19061452a565b60405180910390fd5b80600360008d60c00160600160206113d591908101906131d1565b73ffffffffffffffffffffffffffffffffffffffff1673ffffffffffffffffffffffffffffffffffffffff168152602001908152602001600020600082825403925050819055508060036000600160003373ffffffffffffffffffffffffffffffffffffffff1673ffffffffffffffffffffffffffffffffffffffff16815260200190815260200160002060009054906101000a900473ffffffffffffffffffffffffffffffffffffffff1673ffffffffffffffffffffffffffffffffffffffff1673ffffffffffffffffffffffffffffffffffffffff168152602001908152602001600020600082825401925050819055508a60c00160000160206114de91908101906131d1565b73ffffffffffffffffffffffffffffffffffffffff163373ffffffffffffffffffffffffffffffffffffffff16600160003373ffffffffffffffffffffffffffffffffffffffff1673ffffffffffffffffffffffffffffffffffffffff16815260200190815260200160002060009054906101000a900473ffffffffffffffffffffffffffffffffffffffff1673ffffffffffffffffffffffffffffffffffffffff167fc9aa709786a3d5fe2cc947abc1ba8cbb0f6decb57aa74b84eb7f558125fee4548e60000160206115b591908101906131d1565b8f60c00160600160206115cb91908101906131d1565b8a88886040516115df95949392919061428a565b60405180910390a45050505050505b5050505050565b606060048054600181600116156101000203166002900480601f01602080910402602001604051908101604052809291908181526020018280546001816001161561010002031660029004801561168d5780601f106116625761010080835404028352916020019161168d565b820191906000526020600020905b81548152906001019060200180831161167057829003601f168201915b5050505050905090565b6000606482604001516064018360200151850202816116b257fe5b04826060015101905092915050565b6040518060600160405280602f8152602001614c88602f913981565b600560009054906101000a900473ffffffffffffffffffffffffffffffffffffffff1681565b60048054600181600116156101000203166002900480601f0160208091040260200160405190810160405280929190818152602001828054600181600116156101000203166002900480156117995780601f1061176e57610100808354040283529160200191611799565b820191906000526020600020905b81548152906001019060200180831161177c57829003601f168201915b505050505081565b60005481565b600a81565b61520881565b6000600360008373ffffffffffffffffffffffffffffffffffffffff1673ffffffffffffffffffffffffffffffffffffffff168152602001908152602001600020549050919050565b600660009054906101000a900473ffffffffffffffffffffffffffffffffffffffff1681565b6000339050600660009054906101000a900473ffffffffffffffffffffffffffffffffffffffff1673ffffffffffffffffffffffffffffffffffffffff1663dd68786282670de0b6b3a76400006103e86040518463ffffffff1660e01b815260040161188f93929190614329565b60206040518083038186803b1580156118a757600080fd5b505afa1580156118bb573d6000803e3d6000fd5b505050506040513d601f19601f820116820180604052506118df91908101906132cd565b61191e576040517f08c379a00000000000000000000000000000000000000000000000000000000081526004016119159061460a565b60405180910390fd5b6000600260008373ffffffffffffffffffffffffffffffffffffffff1673ffffffffffffffffffffffffffffffffffffffff16815260200190815260200160002054116119a0576040517f08c379a00000000000000000000000000000000000000000000000000000000081526004016119979061462a565b60405180910390fd5b8073ffffffffffffffffffffffffffffffffffffffff167f77f2d8afec4b9d82ffa0dea525320620292bd1067f575964994d5c4501479aed868686866040516119ec9493929190614833565b60405180910390a25050505050565b6000349050671bc16d674ec80000811115611a4b576040517f08c379a0000000000000000000000000000000000000000000000000000000008152600401611a42906145ea565b60405180910390fd5b611a94600360008473ffffffffffffffffffffffffffffffffffffffff1673ffffffffffffffffffffffffffffffffffffffff168152602001908152602001600020548261299c565b600360008473ffffffffffffffffffffffffffffffffffffffff1673ffffffffffffffffffffffffffffffffffffffff168152602001908152602001600020819055503373ffffffffffffffffffffffffffffffffffffffff168273ffffffffffffffffffffffffffffffffffffffff167f8752a472e571a816aea92eec8dae9baf628e840f4929fbcc2d155e6233ff68a783604051611b349190614818565b60405180910390a35050565b6000606080876000015173ffffffffffffffffffffffffffffffffffffffff16886000015173ffffffffffffffffffffffffffffffffffffffff1663ce1b815f905060e01b604051602401604051602081830303815290604052907bffffffffffffffffffffffffffffffffffffffffffffffffffffffff19166020820180517bffffffffffffffffffffffffffffffffffffffffffffffffffffffff8381831617835250505050604051611bf59190614221565b600060405180830381855afa9150503d8060008114611c30576040519150601f19603f3d011682016040523d82523d6000602084013e611c35565b606091505b508092508194505050821580611c4d57506020815114155b15611c945760006040518060400160405280601a81526020017f67657454727573746564466f72776172646572206661696c65640000000000008152509250925050611f0b565b600081806020019051611caa9190810190613223565b90508073ffffffffffffffffffffffffffffffffffffffff168173ffffffffffffffffffffffffffffffffffffffff16638e1653c9905060e01b8a88604051602401611cf792919061479c565b604051602081830303815290604052907bffffffffffffffffffffffffffffffffffffffffffffffffffffffff19166020820180517bffffffffffffffffffffffffffffffffffffffffffffffffffffffff8381831617835250505050604051611d619190614221565b600060405180830381855afa9150503d8060008114611d9c576040519150601f19603f3d011682016040523d82523d6000602084013e611da1565b606091505b50809350819550505083611dc5576000611dba836129f1565b935093505050611f0b565b6060600073ffffffffffffffffffffffffffffffffffffffff1663b1ed031f905060e01b8a878b604051602401611dfe939291906147d3565b604051602081830303815290604052907bffffffffffffffffffffffffffffffffffffffffffffffffffffffff19166020820180517bffffffffffffffffffffffffffffffffffffffffffffffffffffffff8381831617835250505050905089606001516060015173ffffffffffffffffffffffffffffffffffffffff168882604051611e8b9190614221565b6000604051808303818686fa925050503d8060008114611ec7576040519150601f19603f3d011682016040523d82523d6000602084013e611ecc565b606091505b50809450819650505084611ef1576000611ee5846129f1565b94509450505050611f0b565b82806020019051611f05919081019061339c565b93505050505b9550959350505050565b600033905082829050600260008373ffffffffffffffffffffffffffffffffffffffff1673ffffffffffffffffffffffffffffffffffffffff1681526020019081526020016000205401600260008373ffffffffffffffffffffffffffffffffffffffff1673ffffffffffffffffffffffffffffffffffffffff16815260200190815260200160002081905550600a600260008373ffffffffffffffffffffffffffffffffffffffff1673ffffffffffffffffffffffffffffffffffffffff168152602001908152602001600020541115612025576040517f08c379a000000000000000000000000000000000000000000000000000000000815260040161201c9061466a565b60405180910390fd5b600660009054906101000a900473ffffffffffffffffffffffffffffffffffffffff1673ffffffffffffffffffffffffffffffffffffffff1663dd68786282670de0b6b3a76400006103e86040518463ffffffff1660e01b815260040161208e93929190614329565b60206040518083038186803b1580156120a657600080fd5b505afa1580156120ba573d6000803e3d6000fd5b505050506040513d601f19601f820116820180604052506120de91908101906132cd565b61211d576040517f08c379a00000000000000000000000000000000000000000000000000000000081526004016121149061460a565b60405180910390fd5b60008090505b838390508110156122c757600073ffffffffffffffffffffffffffffffffffffffff166001600086868581811061215657fe5b905060200201602061216b91908101906131d1565b73ffffffffffffffffffffffffffffffffffffffff1673ffffffffffffffffffffffffffffffffffffffff16815260200190815260200160002060009054906101000a900473ffffffffffffffffffffffffffffffffffffffff1673ffffffffffffffffffffffffffffffffffffffff161461221c576040517f08c379a00000000000000000000000000000000000000000000000000000000081526004016122139061454a565b60405180910390fd5b816001600086868581811061222d57fe5b905060200201602061224291908101906131d1565b73ffffffffffffffffffffffffffffffffffffffff1673ffffffffffffffffffffffffffffffffffffffff16815260200190815260200160002060006101000a81548173ffffffffffffffffffffffffffffffffffffffff021916908373ffffffffffffffffffffffffffffffffffffffff1602179055508080600101915050612123565b508073ffffffffffffffffffffffffffffffffffffffff167febf4a9bffb39f7c5dbf3f65540183b9381ae226ac3d0a45b4cad484713bd4a288484600260008673ffffffffffffffffffffffffffffffffffffffff1673ffffffffffffffffffffffffffffffffffffffff1681526020019081526020016000205460405161235193929190614360565b60405180910390a2505050565b600760009054906101000a900473ffffffffffffffffffffffffffffffffffffffff1681565b6000600660009054906101000a900473ffffffffffffffffffffffffffffffffffffffff16905090565b600061938a905090565b600760009054906101000a900473ffffffffffffffffffffffffffffffffffffffff1673ffffffffffffffffffffffffffffffffffffffff163373ffffffffffffffffffffffffffffffffffffffff1614612448576040517f08c379a000000000000000000000000000000000000000000000000000000000815260040161243f9061464a565b60405180910390fd5b6000600160008473ffffffffffffffffffffffffffffffffffffffff1673ffffffffffffffffffffffffffffffffffffffff16815260200190815260200160002060009054906101000a900473ffffffffffffffffffffffffffffffffffffffff169050600073ffffffffffffffffffffffffffffffffffffffff168173ffffffffffffffffffffffffffffffffffffffff16141561251c576040517f08c379a0000000000000000000000000000000000000000000000000000000008152600401612513906146ca565b60405180910390fd5b600660009054906101000a900473ffffffffffffffffffffffffffffffffffffffff1673ffffffffffffffffffffffffffffffffffffffff1663dd68786282670de0b6b3a76400006103e86040518463ffffffff1660e01b815260040161258593929190614329565b60206040518083038186803b15801561259d57600080fd5b505afa1580156125b1573d6000803e3d6000fd5b505050506040513d601f19601f820116820180604052506125d591908101906132cd565b612614576040517f08c379a000000000000000000000000000000000000000000000000000000000815260040161260b9061460a565b60405180910390fd5b6000600660009054906101000a900473ffffffffffffffffffffffffffffffffffffffff1673ffffffffffffffffffffffffffffffffffffffff166316934fc4836040518263ffffffff1660e01b81526004016126719190614238565b60806040518083038186803b15801561268957600080fd5b505afa15801561269d573d6000803e3d6000fd5b505050506040513d601f19601f820116820180604052506126c191908101906137a1565b5050509050600660009054906101000a900473ffffffffffffffffffffffffffffffffffffffff1673ffffffffffffffffffffffffffffffffffffffff166309a08af48385846040518463ffffffff1660e01b815260040161272593929190614253565b600060405180830381600087803b15801561273f57600080fd5b505af1158015612753573d6000803e3d6000fd5b5050505050505050565b60608160405160200161277091906144cb565b60405160208183030381529060405290508051602082018181fd5b600060048201835110156127b2576127b16127ac6003855160048601612a2d565b612ab2565b5b6020820191508183015190507fffffffff000000000000000000000000000000000000000000000000000000008116905080905092915050565b60006127f6612c45565b8273ffffffffffffffffffffffffffffffffffffffff16635ea54eee6040518163ffffffff1660e01b815260040160606040518083038186803b15801561283c57600080fd5b505afa158015612850573d6000803e3d6000fd5b505050506040513d601f19601f82011682018060405250612874919081019061342f565b90506000846000015182604001518360200151846000015161938a01010101905080620186a0018610156128dd576040517f08c379a00000000000000000000000000000000000000000000000000000000081526004016128d4906145aa565b60405180910390fd5b806128e6612989565b01925060006128f58487611697565b9050600360008673ffffffffffffffffffffffffffffffffffffffff1673ffffffffffffffffffffffffffffffffffffffff16815260200190815260200160002054811115612979576040517f08c379a0000000000000000000000000000000000000000000000000000000008152600401612970906146aa565b60405180910390fd5b8383935093505050935093915050565b6000805460003690500261520801905090565b6000808284019050838110156129e7576040517f08c379a00000000000000000000000000000000000000000000000000000000081526004016129de9061458a565b60405180910390fd5b8091505092915050565b6060602482511015612a0557819050612a28565b612a128260048451612aba565b806020019051612a25919081019061339c565b90505b919050565b6060632800659560e01b848484604051602401612a4c93929190614494565b604051602081830303815290604052907bffffffffffffffffffffffffffffffffffffffffffffffffffffffff19166020820180517bffffffffffffffffffffffffffffffffffffffffffffffffffffffff838183161783525050505090509392505050565b805160208201fd5b606081831115612ad957612ad8612ad360008585612a2d565b612ab2565b5b8351821115612af857612af7612af26001848751612a2d565b612ab2565b5b8282036040519080825280601f01601f191660200182016040528015612b2d5781602001600182028038833980820191505090505b509050612b4e612b3c82612b58565b84612b4687612b58565b018351612b68565b8090509392505050565b6000602082019050809050919050565b6020811015612b92576001816020036101000a038019835116818551168082178652505050612c12565b82821415612b9f57612c13565b82821115612bde5760208103905080820181840181515b82851015612bd35784518652602085019450602086019550612bb6565b808252505050612c11565b60208103905080820181840183515b81861215612c0a5782518252602083039250602082039150612bed565b8086525050505b5b5b505050565b60405180608001604052806000815260200160008019168152602001600015158152602001606081525090565b60405180606001604052806000815260200160008152602001600081525090565b600081359050612c7581614c04565b92915050565b600081519050612c8a81614c04565b92915050565b600081359050612c9f81614c1b565b92915050565b600081519050612cb481614c1b565b92915050565b60008083601f840112612ccc57600080fd5b8235905067ffffffffffffffff811115612ce557600080fd5b602083019150836020820283011115612cfd57600080fd5b9250929050565b600081519050612d1381614c32565b92915050565b600081519050612d2881614c49565b92915050565b60008083601f840112612d4057600080fd5b8235905067ffffffffffffffff811115612d5957600080fd5b602083019150836001820283011115612d7157600080fd5b9250929050565b600082601f830112612d8957600080fd5b8135612d9c612d97826148a0565b614873565b91508082526020830160208301858383011115612db857600080fd5b612dc3838284614b97565b50505092915050565b600082601f830112612ddd57600080fd5b8135612df0612deb826148cc565b614873565b91508082526020830160208301858383011115612e0c57600080fd5b612e17838284614b97565b50505092915050565b600082601f830112612e3157600080fd5b8151612e44612e3f826148cc565b614873565b91508082526020830160208301858383011115612e6057600080fd5b612e6b838284614ba6565b50505092915050565b600081519050612e8381614c60565b92915050565b60008083601f840112612e9b57600080fd5b8235905067ffffffffffffffff811115612eb457600080fd5b602083019150836001820283011115612ecc57600080fd5b9250929050565b600082601f830112612ee457600080fd5b8151612ef7612ef2826148f8565b614873565b91508082526020830160208301858383011115612f1357600080fd5b612f1e838284614ba6565b50505092915050565b600060808284031215612f3957600080fd5b612f436080614873565b90506000612f53848285016131a7565b6000830152506020612f67848285016131a7565b6020830152506040612f7b848285016131a7565b6040830152506060612f8f848285016131a7565b60608301525092915050565b600060808284031215612fad57600080fd5b612fb76080614873565b90506000612fc7848285016131a7565b6000830152506020612fdb848285016131a7565b6020830152506040612fef848285016131a7565b6040830152506060613003848285016131a7565b60608301525092915050565b60006060828403121561302157600080fd5b81905092915050565b60006060828403121561303c57600080fd5b6130466060614873565b90506000613056848285016131bc565b600083015250602061306a848285016131bc565b602083015250604061307e848285016131bc565b60408301525092915050565b60006080828403121561309c57600080fd5b6130a66080614873565b905060006130b684828501612c66565b60008301525060206130ca848285016131a7565b60208301525060406130de84828501612c66565b60408301525060606130f284828501612c66565b60608301525092915050565b6000610140828403121561311157600080fd5b81905092915050565b6000610140828403121561312d57600080fd5b6131376080614873565b9050600061314784828501612c66565b600083015250602082013567ffffffffffffffff81111561316757600080fd5b61317384828501612d78565b602083015250604061318784828501612f27565b60408301525060c061319b8482850161308a565b60608301525092915050565b6000813590506131b681614c70565b92915050565b6000815190506131cb81614c70565b92915050565b6000602082840312156131e357600080fd5b60006131f184828501612c66565b91505092915050565b60006020828403121561320c57600080fd5b600061321a84828501612c7b565b91505092915050565b60006020828403121561323557600080fd5b600061324384828501612ca5565b91505092915050565b6000806040838503121561325f57600080fd5b600061326d85828601612c66565b925050602061327e85828601612c90565b9150509250929050565b6000806020838503121561329b57600080fd5b600083013567ffffffffffffffff8111156132b557600080fd5b6132c185828601612cba565b92509250509250929050565b6000602082840312156132df57600080fd5b60006132ed84828501612d04565b91505092915050565b6000806040838503121561330957600080fd5b600061331785828601612d04565b925050602083015167ffffffffffffffff81111561333457600080fd5b61334085828601612e20565b9150509250929050565b60006020828403121561335c57600080fd5b600061336a84828501612d19565b91505092915050565b60006020828403121561338557600080fd5b600061339384828501612e74565b91505092915050565b6000602082840312156133ae57600080fd5b600082015167ffffffffffffffff8111156133c857600080fd5b6133d484828501612ed3565b91505092915050565b6000608082840312156133ef57600080fd5b60006133fd84828501612f27565b91505092915050565b60006080828403121561341857600080fd5b600061342684828501612f9b565b91505092915050565b60006060828403121561344157600080fd5b600061344f8482850161302a565b91505092915050565b60006080828403121561346a57600080fd5b60006134788482850161308a565b91505092915050565b60008060008060006060868803121561349957600080fd5b600086013567ffffffffffffffff8111156134b357600080fd5b6134bf888289016130fe565b955050602086013567ffffffffffffffff8111156134dc57600080fd5b6134e888828901612d2e565b9450945050604086013567ffffffffffffffff81111561350757600080fd5b61351388828901612d2e565b92509250509295509295909350565b600080600080600080600080610100898b03121561353f57600080fd5b600089013567ffffffffffffffff81111561355957600080fd5b6135658b828c016130fe565b985050602089013567ffffffffffffffff81111561358257600080fd5b61358e8b828c01612d2e565b975097505060406135a18b828c0161300f565b95505060a06135b28b828c016131a7565b94505060c06135c38b828c016131a7565b93505060e089013567ffffffffffffffff8111156135e057600080fd5b6135ec8b828c01612d2e565b92509250509295985092959890939650565b600080600080600060a0868803121561361657600080fd5b600086013567ffffffffffffffff81111561363057600080fd5b61363c8882890161311a565b955050602061364d888289016131a7565b945050604061365e888289016131a7565b935050606086013567ffffffffffffffff81111561367b57600080fd5b61368788828901612dcc565b925050608086013567ffffffffffffffff8111156136a457600080fd5b6136b088828901612dcc565b9150509295509295909350565b600080604083850312156136d057600080fd5b60006136de858286016131a7565b92505060206136ef85828601612c90565b9150509250929050565b60008060a0838503121561370c57600080fd5b600061371a858286016131a7565b925050602061372b85828601612f9b565b9150509250929050565b6000806000806060858703121561374b57600080fd5b6000613759878288016131a7565b945050602061376a878288016131a7565b935050604085013567ffffffffffffffff81111561378757600080fd5b61379387828801612e89565b925092505092959194509250565b600080600080608085870312156137b757600080fd5b60006137c5878288016131bc565b94505060206137d6878288016131bc565b93505060406137e7878288016131bc565b92505060606137f887828801612ca5565b91505092959194509250565b6000613810838361382b565b60208301905092915050565b61382581614a63565b82525050565b61383481614a51565b82525050565b61384381614a51565b82525050565b60006138558385614967565b935061386082614924565b8060005b858110156138995761387682846149b6565b6138808882613804565b975061388b8361495a565b925050600181019050613864565b5085925050509392505050565b6138af81614a75565b82525050565b6138be81614a81565b82525050565b6138cd81614a8b565b82525050565b60006138df8385614989565b93506138ec838584614b97565b6138f583614bd9565b840190509392505050565b600061390c8385614978565b9350613919838584614b97565b61392283614bd9565b840190509392505050565b600061393882614939565b6139428185614989565b9350613952818560208601614ba6565b61395b81614bd9565b840191505092915050565b600061397182614939565b61397b818561499a565b935061398b818560208601614ba6565b80840191505092915050565b60006139a28261492e565b6139ac8185614978565b93506139bc818560208601614ba6565b6139c581614bd9565b840191505092915050565b60006139db8261492e565b6139e5818561499a565b93506139f5818560208601614ba6565b80840191505092915050565b613a0a81614b07565b82525050565b613a1981614b2b565b82525050565b613a2881614b4f565b82525050565b613a3781614b73565b82525050565b613a4681614b85565b82525050565b6000613a5883856149a5565b9350613a65838584614b97565b613a6e83614bd9565b840190509392505050565b6000613a848261494f565b613a8e81856149a5565b9350613a9e818560208601614ba6565b613aa781614bd9565b840191505092915050565b6000613abd82614944565b613ac781856149a5565b9350613ad7818560208601614ba6565b613ae081614bd9565b840191505092915050565b6000613af86013836149a5565b91507f53686f756c64206e6f74206765742068657265000000000000000000000000006000830152602082019050919050565b6000613b386019836149a5565b91507f7468697320776f726b6572206861732061206d616e61676572000000000000006000830152602082019050919050565b6000613b786027836149a5565b91507f4f6e6c792052656c61794875622073686f756c642063616c6c2074686973206660008301527f756e6374696f6e000000000000000000000000000000000000000000000000006020830152604082019050919050565b6000613bde601b836149a5565b91507f536166654d6174683a206164646974696f6e206f766572666c6f7700000000006000830152602082019050919050565b6000613c1e6038836149a5565b91507f4e6f7420656e6f75676820676173206c65667420666f7220726563697069656e60008301527f7443616c6c7341746f6d696320746f20636f6d706c65746500000000000000006020830152604082019050919050565b6000613c846011836149a5565b91507f496e76616c6964206761732070726963650000000000000000000000000000006000830152602082019050919050565b6000613cc4600f836149a5565b91507f6465706f73697420746f6f2062696700000000000000000000000000000000006000830152602082019050919050565b6000613d046018836149a5565b91507f72656c6179206d616e61676572206e6f74207374616b656400000000000000006000830152602082019050919050565b6000613d446010836149a5565b91507f6e6f2072656c617920776f726b657273000000000000000000000000000000006000830152602082019050919050565b6000613d84600d836149a5565b91507f4e6f742070656e616c697a6572000000000000000000000000000000000000006000830152602082019050919050565b6000613dc46010836149a5565b91507f746f6f206d616e7920776f726b657273000000000000000000000000000000006000830152602082019050919050565b6000613e046012836149a5565b91507f696e73756666696369656e742066756e647300000000000000000000000000006000830152602082019050919050565b6000613e446019836149a5565b91507f5061796d61737465722062616c616e636520746f6f206c6f77000000000000006000830152602082019050919050565b6000613e846014836149a5565b91507f556e6b6e6f776e2072656c617920776f726b65720000000000000000000000006000830152602082019050919050565b60808201613ec86000830183614a3a565b613ed560008501826141ec565b50613ee36020830183614a3a565b613ef060208501826141ec565b50613efe6040830183614a3a565b613f0b60408501826141ec565b50613f196060830183614a3a565b613f2660608501826141ec565b50505050565b60808201613f3d6000830183614a3a565b613f4a60008501826141ec565b50613f586020830183614a3a565b613f6560208501826141ec565b50613f736040830183614a3a565b613f8060408501826141ec565b50613f8e6060830183614a3a565b613f9b60608501826141ec565b50505050565b608082016000820151613fb760008501826141ec565b506020820151613fca60208501826141ec565b506040820151613fdd60408501826141ec565b506060820151613ff060608501826141ec565b50505050565b60608201600082015161400c60008501826141ec565b50602082015161401f60208501826141ec565b50604082015161403260408501826141ec565b50505050565b6080820161404960008301836149b6565b614056600085018261382b565b506140646020830183614a3a565b61407160208501826141ec565b5061407f60408301836149b6565b61408c604085018261382b565b5061409a60608301836149b6565b6140a7606085018261382b565b50505050565b6080820160008201516140c3600085018261382b565b5060208201516140d660208501826141ec565b5060408201516140e9604085018261382b565b5060608201516140fc606085018261382b565b50505050565b6000610140830161411660008401846149b6565b614123600086018261382b565b5061413160208401846149cd565b8583036020870152614144838284613900565b925050506141556040840184614a24565b6141626040860182613eb7565b5061417060c0840184614a2f565b61417d60c0860182614038565b508091505092915050565b6000610140830160008301516141a1600086018261382b565b50602083015184820360208601526141b98282613997565b91505060408301516141ce6040860182613fa1565b5060608301516141e160c08601826140ad565b508091505092915050565b6141f581614afd565b82525050565b61420481614afd565b82525050565b600061421682846139d0565b915081905092915050565b600061422d8284613966565b915081905092915050565b600060208201905061424d600083018461383a565b92915050565b6000606082019050614268600083018661383a565b614275602083018561381c565b61428260408301846141fb565b949350505050565b600060a08201905061429f600083018861383a565b6142ac602083018761383a565b6142b960408301866138c4565b6142c66060830185613a3d565b6142d360808301846141fb565b9695505050505050565b60006080820190506142f2600083018761383a565b6142ff602083018661383a565b61430c60408301856138c4565b818103606083015261431e8184613a79565b905095945050505050565b600060608201905061433e600083018661383a565b61434b60208301856141fb565b61435860408301846141fb565b949350505050565b6000604082019050818103600083015261437b818587613849565b905061438a60208301846141fb565b949350505050565b60006040820190506143a760008301856138a6565b81810360208301526143b98184613a79565b90509392505050565b600060208201905081810360008301526143dd8184866138d3565b90509392505050565b600061010082019050818103600083015261440281888a6138d3565b905061441160208301876138a6565b61441e60408301866138b5565b61442b60608301856141fb565b6144386080830184613f2c565b979650505050505050565b60006020820190506144586000830184613a01565b92915050565b60006020820190506144736000830184613a10565b92915050565b600060208201905061448e6000830184613a1f565b92915050565b60006060820190506144a96000830186613a2e565b6144b660208301856141fb565b6144c360408301846141fb565b949350505050565b60006020820190506144e06000830184613a3d565b92915050565b600060208201905081810360008301526145008184613ab2565b905092915050565b600060208201905081810360008301526145228184613a79565b905092915050565b6000602082019050818103600083015261454381613aeb565b9050919050565b6000602082019050818103600083015261456381613b2b565b9050919050565b6000602082019050818103600083015261458381613b6b565b9050919050565b600060208201905081810360008301526145a381613bd1565b9050919050565b600060208201905081810360008301526145c381613c11565b9050919050565b600060208201905081810360008301526145e381613c77565b9050919050565b6000602082019050818103600083015261460381613cb7565b9050919050565b6000602082019050818103600083015261462381613cf7565b9050919050565b6000602082019050818103600083015261464381613d37565b9050919050565b6000602082019050818103600083015261466381613d77565b9050919050565b6000602082019050818103600083015261468381613db7565b9050919050565b600060208201905081810360008301526146a381613df7565b9050919050565b600060208201905081810360008301526146c381613e37565b9050919050565b600060208201905081810360008301526146e381613e77565b9050919050565b600060408201905081810360008301526147048186614102565b905081810360208301526147198184866138d3565b9050949350505050565b600061010082019050818103600083015261473e818a614102565b9050818103602083015261475381888a6138d3565b90506147626040830187613ff6565b61476f60a08301866141fb565b61477c60c08301856141fb565b81810360e083015261478e818461392d565b905098975050505050505050565b600060408201905081810360008301526147b68185614188565b905081810360208301526147ca818461392d565b90509392505050565b600060608201905081810360008301526147ed8186614188565b90508181036020830152614801818561392d565b905061481060408301846141fb565b949350505050565b600060208201905061482d60008301846141fb565b92915050565b600060608201905061484860008301876141fb565b61485560208301866141fb565b8181036040830152614868818486613a4c565b905095945050505050565b6000604051905081810181811067ffffffffffffffff8211171561489657600080fd5b8060405250919050565b600067ffffffffffffffff8211156148b757600080fd5b601f19601f8301169050602081019050919050565b600067ffffffffffffffff8211156148e357600080fd5b601f19601f8301169050602081019050919050565b600067ffffffffffffffff82111561490f57600080fd5b601f19601f8301169050602081019050919050565b6000819050919050565b600081519050919050565b600081519050919050565b600081519050919050565b600081519050919050565b6000602082019050919050565b600082825260208201905092915050565b600082825260208201905092915050565b600082825260208201905092915050565b600081905092915050565b600082825260208201905092915050565b60006149c56020840184612c66565b905092915050565b600080833560016020038436030381126149e657600080fd5b83810192508235915060208301925067ffffffffffffffff821115614a0a57600080fd5b600182023603841315614a1c57600080fd5b509250929050565b600082905092915050565b600082905092915050565b6000614a4960208401846131a7565b905092915050565b6000614a5c82614add565b9050919050565b6000614a6e82614add565b9050919050565b60008115159050919050565b6000819050919050565b60007fffffffff0000000000000000000000000000000000000000000000000000000082169050919050565b6000819050614ac582614bea565b919050565b6000819050614ad882614bf7565b919050565b600073ffffffffffffffffffffffffffffffffffffffff82169050919050565b6000819050919050565b6000614b1282614b19565b9050919050565b6000614b2482614add565b9050919050565b6000614b3682614b3d565b9050919050565b6000614b4882614add565b9050919050565b6000614b5a82614b61565b9050919050565b6000614b6c82614add565b9050919050565b6000614b7e82614ab7565b9050919050565b6000614b9082614aca565b9050919050565b82818337600083830152505050565b60005b83811015614bc4578082015181840152602081019050614ba9565b83811115614bd3576000848401525b50505050565b6000601f19601f8301169050919050565b60088110614bf457fe5b50565b60058110614c0157fe5b50565b614c0d81614a51565b8114614c1857600080fd5b50565b614c2481614a63565b8114614c2f57600080fd5b50565b614c3b81614a75565b8114614c4657600080fd5b50565b614c5281614a81565b8114614c5d57600080fd5b50565b60058110614c6d57600080fd5b50565b614c7981614afd565b8114614c8457600080fd5b5056fe2449643a20346239666130363564663230326530626537323265633339313339343231363734316266386137322024a365627a7a72315820a113fb86d90992cb7ab3b46921886aa23a9fa4a80dbae8ce9f368d62f69488a96c6578706572696d656e74616cf564736f6c6343000510004060806040523480156200001157600080fd5b50604051620011d0380380620011d083398181016040526200003791908101906200016d565b620000e260405180606001604052806040518060400160405280601781526020017f47534e2052656c61796564205472616e73616374696f6e00000000000000000081525081526020016040518060400160405280600181526020017f310000000000000000000000000000000000000000000000000000000000000081525081526020018373ffffffffffffffffffffffffffffffffffffffff16815250620000ef60201b60201c565b6000819055505062000310565b6000604051620000ff9062000249565b6040518091039020826000015180519060200120836020015180519060200120846040015160405160200162000139949392919062000260565b604051602081830303815290604052805190602001209050919050565b6000815190506200016781620002f6565b92915050565b6000602082840312156200018057600080fd5b6000620001908482850162000156565b91505092915050565b620001a481620002b8565b82525050565b620001b581620002cc565b82525050565b6000620001ca604283620002ad565b91507f454950373132446f6d61696e28737472696e67206e616d652c737472696e672060008301527f76657273696f6e2c6164647265737320766572696679696e67436f6e7472616360208301527f74290000000000000000000000000000000000000000000000000000000000006040830152604282019050919050565b60006200025682620001bb565b9150819050919050565b6000608082019050620002776000830187620001aa565b620002866020830186620001aa565b620002956040830185620001aa565b620002a4606083018462000199565b95945050505050565b600081905092915050565b6000620002c582620002d6565b9050919050565b6000819050919050565b600073ffffffffffffffffffffffffffffffffffffffff82169050919050565b6200030181620002b8565b81146200030d57600080fd5b50565b610eb080620003206000396000f3fe608060405234801561001057600080fd5b50600436106100625760003560e01c80633644e515146100675780633fb37abf146100855780638e1653c9146100a3578063abf0d3f4146100d3578063c49f91d3146100f1578063cc0c62b21461010f575b600080fd5b61006f61012d565b60405161007c9190610b95565b60405180910390f35b61008d610133565b60405161009a9190610b95565b60405180910390f35b6100bd60048036036100b89190810190610682565b61014a565b6040516100ca9190610b7a565b60405180910390f35b6100db6101d4565b6040516100e89190610b95565b60405180910390f35b6100f96101eb565b6040516101069190610b95565b60405180910390f35b610117610202565b6040516101249190610b95565b60405180910390f35b60005481565b60405161013f90610b65565b604051809103902081565b60008060005461015985610219565b60405160200161016a929190610b04565b60405160208183030381529060405280519060200120905083606001516000015173ffffffffffffffffffffffffffffffffffffffff166101b4848361029990919063ffffffff16565b73ffffffffffffffffffffffffffffffffffffffff161491505092915050565b6040516101e090610aef565b604051809103902081565b6040516101f790610b3b565b604051809103902081565b60405161020e90610b50565b604051809103902081565b600060405161022790610aef565b6040518091039020826000015183602001516040516102469190610ad8565b604051809103902061025b8560400151610385565b61026886606001516103e0565b60405160200161027c959493929190610bb0565b604051602081830303815290604052805190602001209050919050565b600060418251146102ad576000905061037f565b60008060006020850151925060408501519150606085015160001a90507f7fffffffffffffffffffffffffffffff5d576e7357a4501ddfe92f46681b20a08260001c1115610301576000935050505061037f565b601b8160ff16141580156103195750601c8160ff1614155b1561032a576000935050505061037f565b6001868285856040516000815260200160405260405161034d9493929190610ca9565b6020604051602081039080840390855afa15801561036f573d6000803e3d6000fd5b5050506020604051035193505050505b92915050565b600060405161039390610b65565b604051809103902082600001518360200151846040015185606001516040516020016103c3959493929190610c56565b604051602081830303815290604052805190602001209050919050565b60006040516103ee90610b50565b6040518091039020826000015183602001518460400151856060015160405160200161041e959493929190610c03565b604051602081830303815290604052805190602001209050919050565b60008135905061044a81610e3f565b92915050565b600082601f83011261046157600080fd5b813561047461046f82610d1b565b610cee565b9150808252602083016020830185838301111561049057600080fd5b61049b838284610df3565b50505092915050565b600082601f8301126104b557600080fd5b81356104c86104c382610d47565b610cee565b915080825260208301602083018583830111156104e457600080fd5b6104ef838284610df3565b50505092915050565b60006080828403121561050a57600080fd5b6105146080610cee565b905060006105248482850161066d565b60008301525060206105388482850161066d565b602083015250604061054c8482850161066d565b60408301525060606105608482850161066d565b60608301525092915050565b60006080828403121561057e57600080fd5b6105886080610cee565b905060006105988482850161043b565b60008301525060206105ac8482850161066d565b60208301525060406105c08482850161043b565b60408301525060606105d48482850161043b565b60608301525092915050565b600061014082840312156105f357600080fd5b6105fd6080610cee565b9050600061060d8482850161043b565b600083015250602082013567ffffffffffffffff81111561062d57600080fd5b61063984828501610450565b602083015250604061064d848285016104f8565b60408301525060c06106618482850161056c565b60608301525092915050565b60008135905061067c81610e56565b92915050565b6000806040838503121561069557600080fd5b600083013567ffffffffffffffff8111156106af57600080fd5b6106bb858286016105e0565b925050602083013567ffffffffffffffff8111156106d857600080fd5b6106e4858286016104a4565b9150509250929050565b6106f781610d94565b82525050565b61070681610da6565b82525050565b61071581610db2565b82525050565b61072c61072782610db2565b610e35565b82525050565b600061073d82610d73565b6107478185610d7e565b9350610757818560208601610e02565b80840191505092915050565b600061077161010383610d89565b91507f52656c6179526571756573742861646472657373207461726765742c6279746560008301527f7320656e636f64656446756e6374696f6e2c476173446174612067617344617460208301527f612c52656c6179446174612072656c617944617461294761734461746128756960408301527f6e74323536206761734c696d69742c75696e743235362067617350726963652c60608301527f75696e743235362070637452656c61794665652c75696e74323536206261736560808301527f52656c61794665652952656c61794461746128616464726573732073656e646560a08301527f72416464726573732c75696e743235362073656e6465724e6f6e63652c61646460c08301527f726573732072656c6179576f726b65722c61646472657373207061796d61737460e08301527f657229000000000000000000000000000000000000000000000000000000000061010083015261010382019050919050565b60006108e3600283610d89565b91507f19010000000000000000000000000000000000000000000000000000000000006000830152600282019050919050565b6000610923604283610d89565b91507f454950373132446f6d61696e28737472696e67206e616d652c737472696e672060008301527f76657273696f6e2c6164647265737320766572696679696e67436f6e7472616360208301527f74290000000000000000000000000000000000000000000000000000000000006040830152604282019050919050565b60006109af605a83610d89565b91507f52656c61794461746128616464726573732073656e646572416464726573732c60008301527f75696e743235362073656e6465724e6f6e63652c616464726573732072656c6160208301527f79576f726b65722c61646472657373207061796d6173746572290000000000006040830152605a82019050919050565b6000610a3b605383610d89565b91507f476173446174612875696e74323536206761734c696d69742c75696e7432353660008301527f2067617350726963652c75696e743235362070637452656c61794665652c756960208301527f6e74323536206261736552656c617946656529000000000000000000000000006040830152605382019050919050565b610ac381610ddc565b82525050565b610ad281610de6565b82525050565b6000610ae48284610732565b915081905092915050565b6000610afa82610763565b9150819050919050565b6000610b0f826108d6565b9150610b1b828561071b565b602082019150610b2b828461071b565b6020820191508190509392505050565b6000610b4682610916565b9150819050919050565b6000610b5b826109a2565b9150819050919050565b6000610b7082610a2e565b9150819050919050565b6000602082019050610b8f60008301846106fd565b92915050565b6000602082019050610baa600083018461070c565b92915050565b600060a082019050610bc5600083018861070c565b610bd260208301876106ee565b610bdf604083018661070c565b610bec606083018561070c565b610bf9608083018461070c565b9695505050505050565b600060a082019050610c18600083018861070c565b610c2560208301876106ee565b610c326040830186610aba565b610c3f60608301856106ee565b610c4c60808301846106ee565b9695505050505050565b600060a082019050610c6b600083018861070c565b610c786020830187610aba565b610c856040830186610aba565b610c926060830185610aba565b610c9f6080830184610aba565b9695505050505050565b6000608082019050610cbe600083018761070c565b610ccb6020830186610ac9565b610cd8604083018561070c565b610ce5606083018461070c565b95945050505050565b6000604051905081810181811067ffffffffffffffff82111715610d1157600080fd5b8060405250919050565b600067ffffffffffffffff821115610d3257600080fd5b601f19601f8301169050602081019050919050565b600067ffffffffffffffff821115610d5e57600080fd5b601f19601f8301169050602081019050919050565b600081519050919050565b600081905092915050565b600081905092915050565b6000610d9f82610dbc565b9050919050565b60008115159050919050565b6000819050919050565b600073ffffffffffffffffffffffffffffffffffffffff82169050919050565b6000819050919050565b600060ff82169050919050565b82818337600083830152505050565b60005b83811015610e20578082015181840152602081019050610e05565b83811115610e2f576000848401525b50505050565b6000819050919050565b610e4881610d94565b8114610e5357600080fd5b50565b610e5f81610ddc565b8114610e6a57600080fd5b5056fea365627a7a7231582021f9c335a34912803d4f0900a4e723dfb93e4e92dd32d8e7602d81b83f4557506c6578706572696d656e74616cf564736f6c63430005100040",
  "source": "/* solhint-disable avoid-low-level-calls */\n/* solhint-disable no-inline-assembly */\n/* solhint-disable not-rely-on-time */\n/* solhint-disable bracket-align */\npragma solidity ^0.5.16;\npragma experimental ABIEncoderV2;\n\nimport \"@0x/contracts-utils/contracts/src/LibBytes.sol\";\nimport \"openzeppelin-solidity/contracts/math/SafeMath.sol\";\n\nimport \"./utils/EIP712Sig.sol\";\nimport \"./utils/GSNTypes.sol\";\nimport \"./utils/GsnUtils.sol\";\nimport \"./interfaces/IRelayHub.sol\";\nimport \"./interfaces/IPaymaster.sol\";\nimport \"./interfaces/ITrustedForwarder.sol\";\nimport \"./BaseRelayRecipient.sol\";\nimport \"./StakeManager.sol\";\nimport \"./Penalizer.sol\";\n\ncontract RelayHub is IRelayHub {\n\n    string constant public COMMIT_ID = \"$Id: 4b9fa065df202e0be722ec391394216741bf8a72 $\";\n\n    // Minimum stake a relay can have. An attack to the network will never cost less than half this value.\n    uint256 constant private MINIMUM_STAKE = 1 ether;\n\n    // Minimum unstake delay blocks of a relay manager's stake on the StakeManager\n    uint256 constant private MINIMUM_UNSTAKE_DELAY = 1000;\n\n    // Minimum balance required for a relay to register or re-register. Prevents user error in registering a relay that\n    // will not be able to immediately start serving requests.\n    uint256 constant private MINIMUM_RELAY_BALANCE = 0.1 ether;\n\n    // Maximum funds that can be deposited at once. Prevents user error by disallowing large deposits.\n    uint256 constant private MAXIMUM_RECIPIENT_DEPOSIT = 2 ether;\n\n    /**\n    * the total gas overhead of relayCall(), before the first gasleft() and after the last gasleft().\n    * Assume that relay has non-zero balance (costs 15'000 more otherwise).\n    */\n\n    // Gas cost of all relayCall() instructions after actual 'calculateCharge()'\n    uint256 constant private GAS_OVERHEAD = 37770;\n\n    function getHubOverhead() external view returns (uint256) {\n        return GAS_OVERHEAD;\n    }\n    // Gas set aside for all relayCall() instructions to prevent unexpected out-of-gas exceptions\n    uint256 constant private GAS_RESERVE = 100000;\n\n    uint256 public gtxdatanonzero;\n    uint256 constant public GTRANSACTION = 21000;\n\n    enum AtomicRecipientCallsStatus {OK, CanRelayFailed, RelayedCallFailed, PreRelayedFailed, PostRelayedFailed}\n\n    // maps relay worker's address to its manager's address\n    mapping(address => address) private workerToManager;\n\n    // maps relay managers to the number of their workers\n    mapping(address => uint256) private workerCount;\n\n    uint256 constant public MAX_WORKER_COUNT = 10;\n\n    mapping(address => uint256) private balances;\n\n    string public version = \"1.0.0\";\n    // TODO: remove with 0.6 solc\n    function getVersion() external view returns (string memory) {\n        return version;\n    }\n\n\n    EIP712Sig public eip712sig;\n    StakeManager public stakeManager;\n    Penalizer public penalizer;\n    constructor (uint256 _gtxdatanonzero, StakeManager _stakeManager, Penalizer _penalizer) public {\n        eip712sig = new EIP712Sig(address(this));\n        stakeManager = _stakeManager;\n        penalizer = _penalizer;\n        gtxdatanonzero = _gtxdatanonzero;\n    }\n\n    function getStakeManager() external view returns(address) {\n        return address(stakeManager);\n    }\n\n    function calldatagascost() private view returns (uint256) {\n        return GTRANSACTION + msg.data.length * gtxdatanonzero;\n    }\n\n\n    function registerRelayServer(uint256 baseRelayFee, uint256 pctRelayFee, string calldata url) external {\n        address relayManager = msg.sender;\n        require(\n            stakeManager.isRelayManagerStaked(relayManager, MINIMUM_STAKE, MINIMUM_UNSTAKE_DELAY),\n            \"relay manager not staked\"\n        );\n        require(workerCount[relayManager] > 0, \"no relay workers\");\n        emit RelayServerRegistered(relayManager, baseRelayFee, pctRelayFee, url);\n    }\n\n    function addRelayWorkers(address[] calldata newRelayWorkers) external {\n        address relayManager = msg.sender;\n        workerCount[relayManager] = workerCount[relayManager] + newRelayWorkers.length;\n        require(workerCount[relayManager] <= MAX_WORKER_COUNT, \"too many workers\");\n\n        require(\n            stakeManager.isRelayManagerStaked(relayManager, MINIMUM_STAKE, MINIMUM_UNSTAKE_DELAY),\n            \"relay manager not staked\"\n        );\n\n        for (uint256 i = 0; i < newRelayWorkers.length; i++) {\n            require(workerToManager[newRelayWorkers[i]] == address(0), \"this worker has a manager\");\n            workerToManager[newRelayWorkers[i]] = relayManager;\n        }\n\n        emit RelayWorkersAdded(relayManager, newRelayWorkers, workerCount[relayManager]);\n    }\n\n    function depositFor(address target) public payable {\n        uint256 amount = msg.value;\n        require(amount <= MAXIMUM_RECIPIENT_DEPOSIT, \"deposit too big\");\n\n        balances[target] = SafeMath.add(balances[target], amount);\n\n        emit Deposited(target, msg.sender, amount);\n    }\n\n    function balanceOf(address target) external view returns (uint256) {\n        return balances[target];\n    }\n\n    function withdraw(uint256 amount, address payable dest) public {\n        address payable account = msg.sender;\n        require(balances[account] >= amount, \"insufficient funds\");\n\n        balances[account] -= amount;\n        dest.transfer(amount);\n\n        emit Withdrawn(account, dest, amount);\n    }\n\n    function canRelay(\n        GSNTypes.RelayRequest memory relayRequest,\n        uint256 maxPossibleGas,\n        uint256 acceptRelayedCallGasLimit,\n        bytes memory signature,\n        bytes memory approvalData\n    )\n    public\n    view\n    returns (bool success, string memory returnValue)\n    {\n        bytes memory ret;\n        (success, ret) = relayRequest.target.staticcall(abi.encodeWithSelector(\n            BaseRelayRecipient(relayRequest.target).getTrustedForwarder.selector\n        ));\n        if (!success || ret.length != 32) {\n            return (false, \"getTrustedForwarder failed\");\n        }\n        // Verify the sender's request: signature and nonce.\n        ITrustedForwarder forwarder = ITrustedForwarder(abi.decode(ret, (address)));\n        (success, ret) = address(forwarder).staticcall(abi.encodeWithSelector(\n                forwarder.verify.selector,\n                relayRequest, signature\n            ));\n        if (!success) {\n            return (false, GsnUtils.getError(ret));\n        }\n\n        bytes memory encodedTx = abi.encodeWithSelector(IPaymaster(address(0)).acceptRelayedCall.selector,\n            relayRequest, approvalData, maxPossibleGas\n        );\n\n        (success, ret) =\n        relayRequest.relayData.paymaster.staticcall.gas(acceptRelayedCallGasLimit)(encodedTx);\n\n        if (!success) {\n            return (false, GsnUtils.getError(ret));\n        }\n        returnValue = abi.decode(ret, (string));\n    }\n\n    function getAndValidateGasLimits(uint256 initialGas, GSNTypes.GasData memory gasData, address paymaster)\n    private\n    view\n    returns (uint256 maxPossibleGas, GSNTypes.GasLimits memory gasLimits)\n    {\n        gasLimits =\n        IPaymaster(paymaster).getGasLimits();\n        uint256 requiredGas =\n        GAS_OVERHEAD +\n        gasLimits.acceptRelayedCallGasLimit +\n        gasLimits.preRelayedCallGasLimit +\n        gasLimits.postRelayedCallGasLimit +\n        gasData.gasLimit;\n\n        // This transaction must have enough gas to forward the call to the recipient with the requested amount, and not\n        // run out of gas later in this function.\n        require(\n            initialGas >= GAS_RESERVE + requiredGas,\n            \"Not enough gas left for recipientCallsAtomic to complete\");\n\n        // The maximum possible charge is the cost of transaction assuming all bytes of calldata are non-zero and\n        // all paymaster and recipient calls consume entire available gas limit\n        maxPossibleGas = calldatagascost() + requiredGas;\n        uint256 maxPossibleCharge = calculateCharge(\n            maxPossibleGas,\n            gasData\n        );\n\n        // We don't yet know how much gas will be used by the recipient, so we make sure there are enough funds to pay\n        // for the maximum possible charge.\n        require(maxPossibleCharge <= balances[paymaster],\n            \"Paymaster balance too low\");\n        return (maxPossibleGas, gasLimits);\n    }\n\n    /**\n     * @notice Relay a transaction.\n     *\n     */\n    function relayCall(\n    // TODO: msg.sender used to be treated as 'relay' (now passed in a struct),\n    //  make sure this does not have security impl\n        GSNTypes.RelayRequest calldata relayRequest,\n        bytes calldata signature,\n        bytes calldata approvalData\n    )\n    external\n    {\n        uint256 initialGas = gasleft();\n        bytes4 functionSelector = LibBytes.readBytes4(relayRequest.encodedFunction, 0);\n        // Initial soundness checks - the relay must make sure these pass, or it will pay for a reverted transaction.\n        // The worker must be controlled by a manager with a locked stake\n        require(workerToManager[msg.sender] != address(0), \"Unknown relay worker\");\n        require(\n            stakeManager.isRelayManagerStaked(workerToManager[msg.sender], MINIMUM_STAKE, MINIMUM_UNSTAKE_DELAY),\n            \"relay manager not staked\"\n        );\n        // A relay may use a higher gas price than the one requested by the signer (to e.g. get the transaction in a\n        // block faster), but it must not be lower. The recipient will be charged for the requested gas price, not the\n        // one used in the transaction.\n        require(relayRequest.gasData.gasPrice <= tx.gasprice, \"Invalid gas price\");\n        string memory recipientContext;\n        GSNTypes.GasLimits memory gasLimits;\n        {\n            uint256 maxPossibleGas;\n            (maxPossibleGas, gasLimits) = getAndValidateGasLimits(initialGas, relayRequest.gasData, relayRequest.relayData.paymaster);\n\n            // We now verify the legitimacy of the transaction (it must be signed by the sender, and not be replayed),\n            // and that the paymaster will agree to be charged for it.\n            bool success;\n            (success, recipientContext) =\n            // TODO: this new RelayRequest is needed because solc doesn't implement calldata to memory conversion yet\n            canRelay(\n                GSNTypes.RelayRequest(\n                    relayRequest.target,\n                    relayRequest.encodedFunction,\n                    relayRequest.gasData,\n                    relayRequest.relayData),\n                maxPossibleGas, gasLimits.acceptRelayedCallGasLimit, signature, approvalData);\n\n            if (!success) {\n                emit CanRelayFailed(\n                    workerToManager[msg.sender],\n                    msg.sender,\n                    relayRequest.relayData.senderAddress,\n                    relayRequest.target,\n                    relayRequest.relayData.paymaster,\n                    functionSelector,\n                    recipientContext);\n                return;\n            }\n        }\n\n        // From this point on, this transaction will not revert nor run out of gas, and the recipient will be charged\n        // for the gas spent.\n\n        // Calls to the recipient are performed atomically inside an inner transaction which may revert in case of\n        // errors in the recipient. In either case (revert or regular execution) the return data encodes the\n        // RelayCallStatus value.\n        RelayCallStatus status;\n        {\n            bytes memory data =\n            abi.encodeWithSelector(this.recipientCallsAtomic.selector, relayRequest, signature, gasLimits, initialGas, calldatagascost(), bytes(recipientContext));\n            (, bytes memory relayCallStatus) = address(this).call(data);\n            status = abi.decode(relayCallStatus, (RelayCallStatus));\n        }\n\n        // We now perform the actual charge calculation, based on the measured gas used\n        uint256 charge = calculateCharge(\n            calldatagascost() +\n            (initialGas - gasleft()) +\n            GAS_OVERHEAD,\n            relayRequest.gasData\n        );\n\n        // We've already checked that the recipient has enough balance to pay for the relayed transaction, this is only\n        // a sanity check to prevent overflows in case of bugs.\n        require(balances[relayRequest.relayData.paymaster] >= charge, \"Should not get here\");\n        balances[relayRequest.relayData.paymaster] -= charge;\n        balances[workerToManager[msg.sender]] += charge;\n\n        emit TransactionRelayed(\n            workerToManager[msg.sender],\n            msg.sender,\n            relayRequest.relayData.senderAddress,\n            relayRequest.target,\n            relayRequest.relayData.paymaster,\n            functionSelector,\n            status,\n            charge);\n    }\n\n    struct AtomicData {\n        uint256 balanceBefore;\n        bytes32 preReturnValue;\n        bool relayedCallSuccess;\n        bytes data;\n    }\n\n    function recipientCallsAtomic(\n        GSNTypes.RelayRequest calldata relayRequest,\n        bytes calldata signature,\n        GSNTypes.GasLimits calldata gasLimits,\n        uint256 totalInitialGas,\n        uint256 calldataGas,\n        bytes calldata recipientContext\n    )\n    external\n    returns (RelayCallStatus)\n    {\n        AtomicData memory atomicData;\n        // A new gas measurement is performed inside recipientCallsAtomic, since\n        // due to EIP150 available gas amounts cannot be directly compared across external calls\n\n        // This external function can only be called by RelayHub itself, creating an internal transaction. Calls to the\n        // recipient (preRelayedCall, the relayedCall, and postRelayedCall) are called from inside this transaction.\n        require(msg.sender == address(this), \"Only RelayHub should call this function\");\n\n        // If either pre or post reverts, the whole internal transaction will be reverted, reverting all side effects on\n        // the recipient. The recipient will still be charged for the used gas by the relay.\n\n        // The recipient is no allowed to withdraw balance from RelayHub during a relayed transaction. We check pre and\n        // post state to ensure this doesn't happen.\n        atomicData.balanceBefore = balances[relayRequest.relayData.paymaster];\n\n        // First preRelayedCall is executed.\n        // Note: we open a new block to avoid growing the stack too much.\n        atomicData.data = abi.encodeWithSelector(\n            IPaymaster(address(0)).preRelayedCall.selector, recipientContext\n        );\n        {\n            bool success;\n            bytes memory retData;\n            // preRelayedCall may revert, but the recipient will still be charged: it should ensure in\n            // acceptRelayedCall that this will not happen.\n            (success, retData) = relayRequest.relayData.paymaster.call.gas(gasLimits.preRelayedCallGasLimit)(atomicData.data);\n            if (!success) {\n                revertWithStatus(RelayCallStatus.PreRelayedFailed);\n            }\n            atomicData.preReturnValue = abi.decode(retData, (bytes32));\n        }\n\n        // The actual relayed call is now executed. The sender's address is appended at the end of the transaction data\n        (atomicData.relayedCallSuccess,) =\n        ITrustedForwarder(BaseRelayRecipient(relayRequest.target).getTrustedForwarder())\n        .verifyAndCall(relayRequest, signature);\n\n        // Finally, postRelayedCall is executed, with the relayedCall execution's status and a charge estimate\n        // We now determine how much the recipient will be charged, to pass this value to postRelayedCall for accurate\n        // accounting.\n        atomicData.data = abi.encodeWithSelector(\n            IPaymaster(address(0)).postRelayedCall.selector,\n            recipientContext,\n            atomicData.relayedCallSuccess,\n            atomicData.preReturnValue,\n            totalInitialGas - gasleft() + GAS_OVERHEAD + calldataGas,\n            relayRequest.gasData\n        );\n\n        (bool successPost,) = relayRequest.relayData.paymaster.call.gas(gasLimits.postRelayedCallGasLimit)(atomicData.data);\n\n        if (!successPost) {\n            revertWithStatus(RelayCallStatus.PostRelayedFailed);\n        }\n\n        if (balances[relayRequest.relayData.paymaster] < atomicData.balanceBefore) {\n            revertWithStatus(RelayCallStatus.RecipientBalanceChanged);\n        }\n\n        return atomicData.relayedCallSuccess ? RelayCallStatus.OK : RelayCallStatus.RelayedCallFailed;\n    }\n\n    /**\n     * @dev Reverts the transaction with return data set to the ABI encoding of the status argument.\n     */\n    function revertWithStatus(RelayCallStatus status) private pure {\n        bytes memory data = abi.encode(status);\n\n        assembly {\n            let dataSize := mload(data)\n            let dataPtr := add(data, 32)\n\n            revert(dataPtr, dataSize)\n        }\n    }\n\n    function calculateCharge(uint256 gasUsed, GSNTypes.GasData memory gasData) public view returns (uint256) {\n        return gasData.baseRelayFee + (gasUsed * gasData.gasPrice * (100 + gasData.pctRelayFee)) / 100;\n    }\n\n    modifier penalizerOnly () {\n        require(msg.sender == address(penalizer), \"Not penalizer\");\n        _;\n    }\n\n    function penalize(address relayWorker, address payable beneficiary) external penalizerOnly {\n        address relayManager = workerToManager[relayWorker];\n        // The worker must be controlled by a manager with a locked stake\n        require(relayManager != address(0), \"Unknown relay worker\");\n        require(\n            stakeManager.isRelayManagerStaked(relayManager, MINIMUM_STAKE, MINIMUM_UNSTAKE_DELAY),\n            \"relay manager not staked\"\n        );\n        (uint256 totalStake, , , ) = stakeManager.stakes(relayManager);\n        stakeManager.penalizeRelayManager(relayManager, beneficiary, totalStake);\n    }\n}\n",
  "sourcePath": "@opengsn/gsn/contracts/RelayHub.sol",
  "compiler": {
    "name": "solc",
    "version": "0.5.16+commit.9c3226ce.Emscripten.clang"
  },
  "schemaVersion": "3.1.0",
  "updatedAt": "2020-06-07T13:11:36.672Z",
  "devdoc": {
    "methods": {}
  },
  "userdoc": {
    "methods": {
      "relayCall((address,bytes,(uint256,uint256,uint256,uint256),(address,uint256,address,address)),bytes,bytes)": {
        "notice": "Relay a transaction.     "
      }
    }
  }
}