{
  "contractName": "StakeManager",
  "abi": [
    {
      "anonymous": false,
      "inputs": [
        {
          "indexed": true,
          "internalType": "address",
          "name": "relayManager",
          "type": "address"
        },
        {
          "indexed": true,
          "internalType": "address",
          "name": "relayHub",
          "type": "address"
        }
      ],
      "name": "HubAuthorized",
      "type": "event"
    },
    {
      "anonymous": false,
      "inputs": [
        {
          "indexed": true,
          "internalType": "address",
          "name": "relayManager",
          "type": "address"
        },
        {
          "indexed": true,
          "internalType": "address",
          "name": "relayHub",
          "type": "address"
        },
        {
          "indexed": false,
          "internalType": "uint256",
          "name": "removalBlock",
          "type": "uint256"
        }
      ],
      "name": "HubUnauthorized",
      "type": "event"
    },
    {
      "anonymous": false,
      "inputs": [
        {
          "indexed": true,
          "internalType": "address",
          "name": "relayManager",
          "type": "address"
        },
        {
          "indexed": true,
          "internalType": "address",
          "name": "owner",
          "type": "address"
        },
        {
          "indexed": false,
          "internalType": "uint256",
          "name": "stake",
          "type": "uint256"
        },
        {
          "indexed": false,
          "internalType": "uint256",
          "name": "unstakeDelay",
          "type": "uint256"
        }
      ],
      "name": "StakeAdded",
      "type": "event"
    },
    {
      "anonymous": false,
      "inputs": [
        {
          "indexed": true,
          "internalType": "address",
          "name": "relayManager",
          "type": "address"
        },
        {
          "indexed": true,
          "internalType": "address",
          "name": "beneficiary",
          "type": "address"
        },
        {
          "indexed": false,
          "internalType": "uint256",
          "name": "reward",
          "type": "uint256"
        }
      ],
      "name": "StakePenalized",
      "type": "event"
    },
    {
      "anonymous": false,
      "inputs": [
        {
          "indexed": true,
          "internalType": "address",
          "name": "relayManager",
          "type": "address"
        },
        {
          "indexed": true,
          "internalType": "address",
          "name": "owner",
          "type": "address"
        },
        {
          "indexed": false,
          "internalType": "uint256",
          "name": "withdrawBlock",
          "type": "uint256"
        }
      ],
      "name": "StakeUnlocked",
      "type": "event"
    },
    {
      "anonymous": false,
      "inputs": [
        {
          "indexed": true,
          "internalType": "address",
          "name": "relayManager",
          "type": "address"
        },
        {
          "indexed": true,
          "internalType": "address",
          "name": "owner",
          "type": "address"
        },
        {
          "indexed": false,
          "internalType": "uint256",
          "name": "amount",
          "type": "uint256"
        }
      ],
      "name": "StakeWithdrawn",
      "type": "event"
    },
    {
      "constant": true,
      "inputs": [
        {
          "internalType": "address",
          "name": "",
          "type": "address"
        },
        {
          "internalType": "address",
          "name": "",
          "type": "address"
        }
      ],
      "name": "authorizedHubs",
      "outputs": [
        {
          "internalType": "uint256",
          "name": "removalBlock",
          "type": "uint256"
        }
      ],
      "payable": false,
      "stateMutability": "view",
      "type": "function"
    },
    {
      "constant": true,
      "inputs": [
        {
          "internalType": "address",
          "name": "",
          "type": "address"
        }
      ],
      "name": "stakes",
      "outputs": [
        {
          "internalType": "uint256",
          "name": "stake",
          "type": "uint256"
        },
        {
          "internalType": "uint256",
          "name": "unstakeDelay",
          "type": "uint256"
        },
        {
          "internalType": "uint256",
          "name": "withdrawBlock",
          "type": "uint256"
        },
        {
          "internalType": "address payable",
          "name": "owner",
          "type": "address"
        }
      ],
      "payable": false,
      "stateMutability": "view",
      "type": "function"
    },
    {
      "constant": true,
      "inputs": [
        {
          "internalType": "address",
          "name": "relayManager",
          "type": "address"
        }
      ],
      "name": "getStakeInfo",
      "outputs": [
        {
          "components": [
            {
              "internalType": "uint256",
              "name": "stake",
              "type": "uint256"
            },
            {
              "internalType": "uint256",
              "name": "unstakeDelay",
              "type": "uint256"
            },
            {
              "internalType": "uint256",
              "name": "withdrawBlock",
              "type": "uint256"
            },
            {
              "internalType": "address payable",
              "name": "owner",
              "type": "address"
            }
          ],
          "internalType": "struct IStakeManager.StakeInfo",
          "name": "stakeInfo",
          "type": "tuple"
        }
      ],
      "payable": false,
      "stateMutability": "view",
      "type": "function"
    },
    {
      "constant": false,
      "inputs": [
        {
          "internalType": "address",
          "name": "relayManager",
          "type": "address"
        },
        {
          "internalType": "uint256",
          "name": "unstakeDelay",
          "type": "uint256"
        }
      ],
      "name": "stakeForAddress",
      "outputs": [],
      "payable": true,
      "stateMutability": "payable",
      "type": "function"
    },
    {
      "constant": false,
      "inputs": [
        {
          "internalType": "address",
          "name": "relayManager",
          "type": "address"
        }
      ],
      "name": "unlockStake",
      "outputs": [],
      "payable": false,
      "stateMutability": "nonpayable",
      "type": "function"
    },
    {
      "constant": false,
      "inputs": [
        {
          "internalType": "address",
          "name": "relayManager",
          "type": "address"
        }
      ],
      "name": "withdrawStake",
      "outputs": [],
      "payable": false,
      "stateMutability": "nonpayable",
      "type": "function"
    },
    {
      "constant": false,
      "inputs": [
        {
          "internalType": "address",
          "name": "relayManager",
          "type": "address"
        },
        {
          "internalType": "address",
          "name": "relayHub",
          "type": "address"
        }
      ],
      "name": "authorizeHub",
      "outputs": [],
      "payable": false,
      "stateMutability": "nonpayable",
      "type": "function"
    },
    {
      "constant": false,
      "inputs": [
        {
          "internalType": "address",
          "name": "relayManager",
          "type": "address"
        },
        {
          "internalType": "address",
          "name": "relayHub",
          "type": "address"
        }
      ],
      "name": "unauthorizeHub",
      "outputs": [],
      "payable": false,
      "stateMutability": "nonpayable",
      "type": "function"
    },
    {
      "constant": true,
      "inputs": [
        {
          "internalType": "address",
          "name": "relayManager",
          "type": "address"
        },
        {
          "internalType": "uint256",
          "name": "minAmount",
          "type": "uint256"
        },
        {
          "internalType": "uint256",
          "name": "minUnstakeDelay",
          "type": "uint256"
        }
      ],
      "name": "isRelayManagerStaked",
      "outputs": [
        {
          "internalType": "bool",
          "name": "",
          "type": "bool"
        }
      ],
      "payable": false,
      "stateMutability": "view",
      "type": "function"
    },
    {
      "constant": false,
      "inputs": [
        {
          "internalType": "address",
          "name": "relayManager",
          "type": "address"
        },
        {
          "internalType": "address payable",
          "name": "beneficiary",
          "type": "address"
        },
        {
          "internalType": "uint256",
          "name": "amount",
          "type": "uint256"
        }
      ],
      "name": "penalizeRelayManager",
      "outputs": [],
      "payable": false,
      "stateMutability": "nonpayable",
      "type": "function"
    }
  ],
  "bytecode": "0x608060405234801561001057600080fd5b50611f9e806100206000396000f3fe6080604052600436106100915760003560e01c80635d2fb768116100595780635d2fb7681461017a5780637aeb642a14610196578063c23a5cea146101d3578063c3453153146101fc578063dd6878621461023957610091565b806309a08af41461009657806316934fc4146100bf57806319c18932146100ff5780634a1ce59914610128578063500aaa3814610151575b600080fd5b3480156100a257600080fd5b506100bd60048036036100b891908101906117cc565b610276565b005b3480156100cb57600080fd5b506100e660048036036100e19190810190611767565b6105ad565b6040516100f69493929190611e66565b60405180910390f35b34801561010b57600080fd5b5061012660048036036101219190810190611790565b6105fd565b005b34801561013457600080fd5b5061014f600480360361014a9190810190611767565b6107d4565b005b34801561015d57600080fd5b5061017860048036036101739190810190611790565b61096b565b005b610194600480360361018f919081019061181b565b610be2565b005b3480156101a257600080fd5b506101bd60048036036101b89190810190611790565b61116f565b6040516101ca9190611e22565b60405180910390f35b3480156101df57600080fd5b506101fa60048036036101f59190810190611767565b61119a565b005b34801561020857600080fd5b50610223600480360361021e9190810190611767565b611436565b6040516102309190611e07565b60405180910390f35b34801561024557600080fd5b50610260600480360361025b9190810190611857565b611502565b60405161026d9190611c6c565b60405180910390f35b6000600160008573ffffffffffffffffffffffffffffffffffffffff1673ffffffffffffffffffffffffffffffffffffffff16815260200190815260200160002060003373ffffffffffffffffffffffffffffffffffffffff1673ffffffffffffffffffffffffffffffffffffffff168152602001908152602001600020600001549050600081141561033e576040517f08c379a000000000000000000000000000000000000000000000000000000000815260040161033590611d67565b60405180910390fd5b438111610380576040517f08c379a000000000000000000000000000000000000000000000000000000000815260040161037790611ce7565b60405180910390fd5b816000808673ffffffffffffffffffffffffffffffffffffffff1673ffffffffffffffffffffffffffffffffffffffff168152602001908152602001600020600001541015610404576040517f08c379a00000000000000000000000000000000000000000000000000000000081526004016103fb90611da7565b60405180910390fd5b61044f6000808673ffffffffffffffffffffffffffffffffffffffff1673ffffffffffffffffffffffffffffffffffffffff1681526020019081526020016000206000015483611638565b6000808673ffffffffffffffffffffffffffffffffffffffff1673ffffffffffffffffffffffffffffffffffffffff1681526020019081526020016000206000018190555060006104a183600261168e565b905060006104af8483611638565b9050600073ffffffffffffffffffffffffffffffffffffffff166108fc839081150290604051600060405180830381858888f193505050501580156104f8573d6000803e3d6000fd5b508473ffffffffffffffffffffffffffffffffffffffff166108fc829081150290604051600060405180830381858888f1935050505015801561053f573d6000803e3d6000fd5b508473ffffffffffffffffffffffffffffffffffffffff168673ffffffffffffffffffffffffffffffffffffffff167f2f2ba0bf4c9bedc2210a4da5b5811c2a4fd28e62c51bb90c3ea6fdce00808eb08360405161059d9190611e22565b60405180910390a3505050505050565b60006020528060005260406000206000915090508060000154908060010154908060020154908060030160009054906101000a900473ffffffffffffffffffffffffffffffffffffffff16905084565b60008060008473ffffffffffffffffffffffffffffffffffffffff1673ffffffffffffffffffffffffffffffffffffffff16815260200190815260200160002090503373ffffffffffffffffffffffffffffffffffffffff168160030160009054906101000a900473ffffffffffffffffffffffffffffffffffffffff1673ffffffffffffffffffffffffffffffffffffffff16146106d1576040517f08c379a00000000000000000000000000000000000000000000000000000000081526004016106c890611de7565b60405180910390fd5b7fffffffffffffffffffffffffffffffffffffffffffffffffffffffffffffffff600160008573ffffffffffffffffffffffffffffffffffffffff1673ffffffffffffffffffffffffffffffffffffffff16815260200190815260200160002060008473ffffffffffffffffffffffffffffffffffffffff1673ffffffffffffffffffffffffffffffffffffffff168152602001908152602001600020600001819055508173ffffffffffffffffffffffffffffffffffffffff168373ffffffffffffffffffffffffffffffffffffffff167fe292c4f6e9f34c975f4958cd5650a8111352feae914a67b0640795710542102160405160405180910390a3505050565b60008060008373ffffffffffffffffffffffffffffffffffffffff1673ffffffffffffffffffffffffffffffffffffffff16815260200190815260200160002090503373ffffffffffffffffffffffffffffffffffffffff168160030160009054906101000a900473ffffffffffffffffffffffffffffffffffffffff1673ffffffffffffffffffffffffffffffffffffffff16146108a8576040517f08c379a000000000000000000000000000000000000000000000000000000000815260040161089f90611de7565b60405180910390fd5b60008160020154146108ef576040517f08c379a00000000000000000000000000000000000000000000000000000000081526004016108e690611c87565b60405180910390fd5b8060010154430181600201819055503373ffffffffffffffffffffffffffffffffffffffff168273ffffffffffffffffffffffffffffffffffffffff167f9ffc6168de1eb7f1d16200f614753cd7edce5a2186aab1c612199dd7316cd7c4836002015460405161095f9190611e22565b60405180910390a35050565b60008060008473ffffffffffffffffffffffffffffffffffffffff1673ffffffffffffffffffffffffffffffffffffffff16815260200190815260200160002090503373ffffffffffffffffffffffffffffffffffffffff168160030160009054906101000a900473ffffffffffffffffffffffffffffffffffffffff1673ffffffffffffffffffffffffffffffffffffffff1614610a3f576040517f08c379a0000000000000000000000000000000000000000000000000000000008152600401610a3690611de7565b60405180910390fd5b6000600160008573ffffffffffffffffffffffffffffffffffffffff1673ffffffffffffffffffffffffffffffffffffffff16815260200190815260200160002060008473ffffffffffffffffffffffffffffffffffffffff1673ffffffffffffffffffffffffffffffffffffffff16815260200190815260200160002090507fffffffffffffffffffffffffffffffffffffffffffffffffffffffffffffffff816000015414610b25576040517f08c379a0000000000000000000000000000000000000000000000000000000008152600401610b1c90611d67565b60405180910390fd5b60008060008673ffffffffffffffffffffffffffffffffffffffff1673ffffffffffffffffffffffffffffffffffffffff16815260200190815260200160002060010154430190508082600001819055508373ffffffffffffffffffffffffffffffffffffffff168573ffffffffffffffffffffffffffffffffffffffff167f8d941c9b73ba7e59671a59eed85054004624684182b0e4bdb56c35937bac65a683604051610bd39190611e22565b60405180910390a35050505050565b600073ffffffffffffffffffffffffffffffffffffffff166000808473ffffffffffffffffffffffffffffffffffffffff1673ffffffffffffffffffffffffffffffffffffffff16815260200190815260200160002060030160009054906101000a900473ffffffffffffffffffffffffffffffffffffffff1673ffffffffffffffffffffffffffffffffffffffff161480610d0a57503373ffffffffffffffffffffffffffffffffffffffff166000808473ffffffffffffffffffffffffffffffffffffffff1673ffffffffffffffffffffffffffffffffffffffff16815260200190815260200160002060030160009054906101000a900473ffffffffffffffffffffffffffffffffffffffff1673ffffffffffffffffffffffffffffffffffffffff16145b610d49576040517f08c379a0000000000000000000000000000000000000000000000000000000008152600401610d4090611de7565b60405180910390fd5b6000808373ffffffffffffffffffffffffffffffffffffffff1673ffffffffffffffffffffffffffffffffffffffff16815260200190815260200160002060010154811015610dcd576040517f08c379a0000000000000000000000000000000000000000000000000000000008152600401610dc490611d27565b60405180910390fd5b8173ffffffffffffffffffffffffffffffffffffffff163373ffffffffffffffffffffffffffffffffffffffff161415610e3c576040517f08c379a0000000000000000000000000000000000000000000000000000000008152600401610e3390611dc7565b60405180910390fd5b600073ffffffffffffffffffffffffffffffffffffffff166000803373ffffffffffffffffffffffffffffffffffffffff1673ffffffffffffffffffffffffffffffffffffffff16815260200190815260200160002060030160009054906101000a900473ffffffffffffffffffffffffffffffffffffffff1673ffffffffffffffffffffffffffffffffffffffff1614610f0c576040517f08c379a0000000000000000000000000000000000000000000000000000000008152600401610f0390611d47565b60405180910390fd5b336000808473ffffffffffffffffffffffffffffffffffffffff1673ffffffffffffffffffffffffffffffffffffffff16815260200190815260200160002060030160006101000a81548173ffffffffffffffffffffffffffffffffffffffff021916908373ffffffffffffffffffffffffffffffffffffffff160217905550346000808473ffffffffffffffffffffffffffffffffffffffff1673ffffffffffffffffffffffffffffffffffffffff16815260200190815260200160002060000160008282540192505081905550806000808473ffffffffffffffffffffffffffffffffffffffff1673ffffffffffffffffffffffffffffffffffffffff168152602001908152602001600020600101819055506000808373ffffffffffffffffffffffffffffffffffffffff1673ffffffffffffffffffffffffffffffffffffffff16815260200190815260200160002060030160009054906101000a900473ffffffffffffffffffffffffffffffffffffffff1673ffffffffffffffffffffffffffffffffffffffff168273ffffffffffffffffffffffffffffffffffffffff167fef7c8dfef14cbefdf829b8f066b068b677992411137321d64b3ed4538c2b36376000808673ffffffffffffffffffffffffffffffffffffffff1673ffffffffffffffffffffffffffffffffffffffff168152602001908152602001600020600001546000808773ffffffffffffffffffffffffffffffffffffffff1673ffffffffffffffffffffffffffffffffffffffff16815260200190815260200160002060010154604051611163929190611e3d565b60405180910390a35050565b6001602052816000526040600020602052806000526040600020600091509150508060000154905081565b60008060008373ffffffffffffffffffffffffffffffffffffffff1673ffffffffffffffffffffffffffffffffffffffff16815260200190815260200160002090503373ffffffffffffffffffffffffffffffffffffffff168160030160009054906101000a900473ffffffffffffffffffffffffffffffffffffffff1673ffffffffffffffffffffffffffffffffffffffff161461126e576040517f08c379a000000000000000000000000000000000000000000000000000000000815260040161126590611de7565b60405180910390fd5b60008160020154116112b5576040517f08c379a00000000000000000000000000000000000000000000000000000000081526004016112ac90611d87565b60405180910390fd5b43816002015411156112fc576040517f08c379a00000000000000000000000000000000000000000000000000000000081526004016112f390611ca7565b60405180910390fd5b6000816000015490506000808473ffffffffffffffffffffffffffffffffffffffff1673ffffffffffffffffffffffffffffffffffffffff168152602001908152602001600020600080820160009055600182016000905560028201600090556003820160006101000a81549073ffffffffffffffffffffffffffffffffffffffff021916905550503373ffffffffffffffffffffffffffffffffffffffff166108fc829081150290604051600060405180830381858888f193505050501580156113cb573d6000803e3d6000fd5b503373ffffffffffffffffffffffffffffffffffffffff168373ffffffffffffffffffffffffffffffffffffffff167fb7c918e0e249f999e965cafeb6c664271b3f4317d296461500e71da39f0cbda3836040516114299190611e22565b60405180910390a3505050565b61143e6116ea565b6000808373ffffffffffffffffffffffffffffffffffffffff1673ffffffffffffffffffffffffffffffffffffffff1681526020019081526020016000206040518060800160405290816000820154815260200160018201548152602001600282015481526020016003820160009054906101000a900473ffffffffffffffffffffffffffffffffffffffff1673ffffffffffffffffffffffffffffffffffffffff1673ffffffffffffffffffffffffffffffffffffffff16815250509050919050565b6000806000808673ffffffffffffffffffffffffffffffffffffffff1673ffffffffffffffffffffffffffffffffffffffff1681526020019081526020016000209050600084826000015410159050600084836001015410159050600080846002015414905060007fffffffffffffffffffffffffffffffffffffffffffffffffffffffffffffffff600160008b73ffffffffffffffffffffffffffffffffffffffff1673ffffffffffffffffffffffffffffffffffffffff16815260200190815260200160002060003373ffffffffffffffffffffffffffffffffffffffff1673ffffffffffffffffffffffffffffffffffffffff168152602001908152602001600020600001541490508380156116185750825b80156116215750815b801561162a5750805b955050505050509392505050565b60008282111561167d576040517f08c379a000000000000000000000000000000000000000000000000000000000815260040161167490611cc7565b60405180910390fd5b600082840390508091505092915050565b60008082116116d2576040517f08c379a00000000000000000000000000000000000000000000000000000000081526004016116c990611d07565b60405180910390fd5b60008284816116dd57fe5b0490508091505092915050565b6040518060800160405280600081526020016000815260200160008152602001600073ffffffffffffffffffffffffffffffffffffffff1681525090565b60008135905061173781611f16565b92915050565b60008135905061174c81611f2d565b92915050565b60008135905061176181611f44565b92915050565b60006020828403121561177957600080fd5b600061178784828501611728565b91505092915050565b600080604083850312156117a357600080fd5b60006117b185828601611728565b92505060206117c285828601611728565b9150509250929050565b6000806000606084860312156117e157600080fd5b60006117ef86828701611728565b93505060206118008682870161173d565b925050604061181186828701611752565b9150509250925092565b6000806040838503121561182e57600080fd5b600061183c85828601611728565b925050602061184d85828601611752565b9150509250929050565b60008060006060848603121561186c57600080fd5b600061187a86828701611728565b935050602061188b86828701611752565b925050604061189c86828701611752565b9150509250925092565b6118af81611ece565b82525050565b6118be81611ece565b82525050565b6118cd81611ee0565b82525050565b60006118e0600f83611eab565b91507f616c72656164792070656e64696e6700000000000000000000000000000000006000830152602082019050919050565b6000611920601583611eab565b91507f5769746864726177616c206973206e6f742064756500000000000000000000006000830152602082019050919050565b6000611960601e83611eab565b91507f536166654d6174683a207375627472616374696f6e206f766572666c6f7700006000830152602082019050919050565b60006119a0601983611eab565b91507f68756220617574686f72697a6174696f6e2065787069726564000000000000006000830152602082019050919050565b60006119e0601a83611eab565b91507f536166654d6174683a206469766973696f6e206279207a65726f0000000000006000830152602082019050919050565b6000611a20602083611eab565b91507f756e7374616b6544656c61792063616e6e6f74206265206465637265617365646000830152602082019050919050565b6000611a60601f83611eab565b91507f73656e64657220697320612072656c61794d616e6167657220697473656c66006000830152602082019050919050565b6000611aa0601283611eab565b91507f687562206e6f7420617574686f72697a656400000000000000000000000000006000830152602082019050919050565b6000611ae0601b83611eab565b91507f5769746864726177616c206973206e6f74207363686564756c656400000000006000830152602082019050919050565b6000611b20601583611eab565b91507f70656e616c74792065786365656473207374616b6500000000000000000000006000830152602082019050919050565b6000611b60602483611eab565b91507f72656c61794d616e616765722063616e6e6f74207374616b6520666f7220697460008301527f73656c66000000000000000000000000000000000000000000000000000000006020830152604082019050919050565b6000611bc6600983611eab565b91507f6e6f74206f776e657200000000000000000000000000000000000000000000006000830152602082019050919050565b608082016000820151611c0f6000850182611c4e565b506020820151611c226020850182611c4e565b506040820151611c356040850182611c4e565b506060820151611c4860608501826118a6565b50505050565b611c5781611f0c565b82525050565b611c6681611f0c565b82525050565b6000602082019050611c8160008301846118c4565b92915050565b60006020820190508181036000830152611ca0816118d3565b9050919050565b60006020820190508181036000830152611cc081611913565b9050919050565b60006020820190508181036000830152611ce081611953565b9050919050565b60006020820190508181036000830152611d0081611993565b9050919050565b60006020820190508181036000830152611d20816119d3565b9050919050565b60006020820190508181036000830152611d4081611a13565b9050919050565b60006020820190508181036000830152611d6081611a53565b9050919050565b60006020820190508181036000830152611d8081611a93565b9050919050565b60006020820190508181036000830152611da081611ad3565b9050919050565b60006020820190508181036000830152611dc081611b13565b9050919050565b60006020820190508181036000830152611de081611b53565b9050919050565b60006020820190508181036000830152611e0081611bb9565b9050919050565b6000608082019050611e1c6000830184611bf9565b92915050565b6000602082019050611e376000830184611c5d565b92915050565b6000604082019050611e526000830185611c5d565b611e5f6020830184611c5d565b9392505050565b6000608082019050611e7b6000830187611c5d565b611e886020830186611c5d565b611e956040830185611c5d565b611ea260608301846118b5565b95945050505050565b600082825260208201905092915050565b6000611ec782611eec565b9050919050565b6000611ed982611eec565b9050919050565b60008115159050919050565b600073ffffffffffffffffffffffffffffffffffffffff82169050919050565b6000819050919050565b611f1f81611ebc565b8114611f2a57600080fd5b50565b611f3681611ece565b8114611f4157600080fd5b50565b611f4d81611f0c565b8114611f5857600080fd5b5056fea365627a7a72315820f787e4eaeef3158bdac0a4ee0cec0ba48dc01beec720f694fd055f114ba8d21d6c6578706572696d656e74616cf564736f6c63430005100040",
  "source": "pragma solidity ^0.5.16;\npragma experimental ABIEncoderV2;\n\nimport \"openzeppelin-solidity/contracts/math/SafeMath.sol\";\n\nimport \"./interfaces/IStakeManager.sol\";\n\ncontract StakeManager is IStakeManager {\n\n    /// maps relay managers to their stakes\n    mapping(address => StakeInfo) public stakes;\n    function getStakeInfo(address relayManager) external view returns (StakeInfo memory stakeInfo) {\n        return stakes[relayManager];\n    }\n\n    /// maps relay managers to a map of addressed of their authorized hubs to the information on that hub\n    mapping(address => mapping(address => RelayHubInfo)) public authorizedHubs;\n\n    /// Put a stake for a relayManager and set its unstake delay.\n    /// If the entry does not exist, it is created, and the caller of this function becomes its owner.\n    /// If the entry already exists, only the owner can call this function.\n    /// @param relayManager - address that represents a stake entry and controls relay registrations on relay hubs\n    /// @param unstakeDelay - number of blocks to elapse before the owner can retrieve the stake after calling 'unlock'\n    function stakeForAddress(address relayManager, uint256 unstakeDelay) external payable {\n        require(stakes[relayManager].owner == address(0) || stakes[relayManager].owner == msg.sender, \"not owner\");\n        require(unstakeDelay >= stakes[relayManager].unstakeDelay, \"unstakeDelay cannot be decreased\");\n        require(msg.sender != relayManager, \"relayManager cannot stake for itself\");\n        require(stakes[msg.sender].owner == address(0), \"sender is a relayManager itself\");\n        stakes[relayManager].owner = msg.sender;\n        stakes[relayManager].stake += msg.value;\n        stakes[relayManager].unstakeDelay = unstakeDelay;\n        emit StakeAdded(relayManager, stakes[relayManager].owner, stakes[relayManager].stake, stakes[relayManager].unstakeDelay);\n    }\n\n    function unlockStake(address relayManager) external {\n        StakeInfo storage info = stakes[relayManager];\n        require(info.owner == msg.sender, \"not owner\");\n        require(info.withdrawBlock == 0, \"already pending\");\n        info.withdrawBlock = block.number + info.unstakeDelay;\n        emit StakeUnlocked(relayManager, msg.sender, info.withdrawBlock);\n    }\n\n    function withdrawStake(address relayManager) external {\n        StakeInfo storage info = stakes[relayManager];\n        require(info.owner == msg.sender, \"not owner\");\n        require(info.withdrawBlock > 0, \"Withdrawal is not scheduled\");\n        require(info.withdrawBlock <= block.number, \"Withdrawal is not due\");\n        uint256 amount = info.stake;\n        delete stakes[relayManager];\n        msg.sender.transfer(amount);\n        emit StakeWithdrawn(relayManager, msg.sender, amount);\n    }\n\n    function authorizeHub(address relayManager, address relayHub) external {\n        StakeInfo storage info = stakes[relayManager];\n        require(info.owner == msg.sender, \"not owner\");\n        authorizedHubs[relayManager][relayHub].removalBlock = uint(-1);\n        emit HubAuthorized(relayManager, relayHub);\n    }\n\n    function unauthorizeHub(address relayManager, address relayHub) external {\n        StakeInfo storage info = stakes[relayManager];\n        require(info.owner == msg.sender, \"not owner\");\n        RelayHubInfo storage hubInfo = authorizedHubs[relayManager][relayHub];\n        require(hubInfo.removalBlock == uint(-1), \"hub not authorized\");\n        uint256 removalBlock = block.number + stakes[relayManager].unstakeDelay;\n        hubInfo.removalBlock = removalBlock;\n        emit HubUnauthorized(relayManager, relayHub, removalBlock);\n    }\n\n    function isRelayManagerStaked(address relayManager, uint256 minAmount, uint256 minUnstakeDelay)\n    external\n    view\n    returns (bool) {\n        StakeInfo storage info = stakes[relayManager];\n        bool isAmountSufficient = info.stake >= minAmount;\n        bool isDelaySufficient = info.unstakeDelay >= minUnstakeDelay;\n        bool isStakeLocked = info.withdrawBlock == 0;\n        bool isHubAuthorized = authorizedHubs[relayManager][msg.sender].removalBlock == uint(-1);\n        return\n        isAmountSufficient &&\n        isDelaySufficient &&\n        isStakeLocked &&\n        isHubAuthorized;\n    }\n\n    /// Slash the stake of the relay relayManager. In order to prevent stake kidnapping, burns half of stake on the way.\n    /// @param relayManager - entry to penalize\n    /// @param beneficiary - address that receives half of the penalty amount\n    /// @param amount - amount to withdraw from stake\n    function penalizeRelayManager(address relayManager, address payable beneficiary, uint256 amount) external {\n        uint256 removalBlock =  authorizedHubs[relayManager][msg.sender].removalBlock;\n        require(removalBlock != 0, \"hub not authorized\");\n        require(removalBlock > block.number, \"hub authorization expired\");\n\n        // Half of the stake will be burned (sent to address 0)\n        require(stakes[relayManager].stake >= amount, \"penalty exceeds stake\");\n        stakes[relayManager].stake = SafeMath.sub(stakes[relayManager].stake, amount);\n\n        uint256 toBurn = SafeMath.div(amount, 2);\n        uint256 reward = SafeMath.sub(amount, toBurn);\n\n        // Ether is burned and transferred\n        address(0).transfer(toBurn);\n        beneficiary.transfer(reward);\n        emit StakePenalized(relayManager, beneficiary, reward);\n    }\n}\n",
  "sourcePath": "@opengsn/gsn/contracts/StakeManager.sol",
  "compiler": {
    "name": "solc",
    "version": "0.5.16+commit.9c3226ce.Emscripten.clang"
  },
  "schemaVersion": "3.1.0",
  "updatedAt": "2020-06-07T13:11:36.682Z",
  "devdoc": {
    "methods": {
      "penalizeRelayManager(address,address,uint256)": {
        "params": {
          "amount": "- amount to withdraw from stake",
          "beneficiary": "- address that receives half of the penalty amount",
          "relayManager": "- entry to penalize"
        }
      },
      "stakeForAddress(address,uint256)": {
        "params": {
          "relayManager": "- address that represents a stake entry and controls relay registrations on relay hubs",
          "unstakeDelay": "- number of blocks to elapse before the owner can retrieve the stake after calling 'unlock'"
        }
      }
    }
  },
  "userdoc": {
    "methods": {
      "penalizeRelayManager(address,address,uint256)": {
        "notice": "Slash the stake of the relay relayManager. In order to prevent stake kidnapping, burns half of stake on the way."
      },
      "stakeForAddress(address,uint256)": {
        "notice": "Put a stake for a relayManager and set its unstake delay. If the entry does not exist, it is created, and the caller of this function becomes its owner. If the entry already exists, only the owner can call this function."
      }
    }
  }
}